:1002FC003F065B4F666D7D077F6F777C395E79714A
:10030C007638373E735C400000FEFDFBF7EFDFBF35
:01031C007F61
:0A031D000808080808080808080886
:10001E00E515B4080040030200D190002FF82828FF
:10002E007302004702005702006702007702008742
:10003E000200970200A70200BC75A0FFE50890021F
:10004E00FC93F580900315805E75A0FFE509900284
:10005E00FC93F580900316804E75A0FFE50A900282
:10006E00FC93F580900317803E75A0FFE50B900280
:10007E00FC93F580900318802E75A0FFE50C90027E
:10008E00FC93F580900319801E75A0FFE50D90027C
:10009E00FC93F58090031A800E75A0FFE50E90027A
:1000AE00FC93F58090031BE493F5A005152275A033
:1000BE00FFE50F9002FC93F58090031CE493F5A0EE
:0300CE00E4F51541
:0100D100220C
:0F03270001110001120001140001130001100068
:10034C005389F0438901758A18758CFCC28DD2A92A
:03035C00D28C221E
:03000B0002015E91
:10015E00C0E0C0F0C083C082C0D075D000C000C067
:10016E0001C002C003C004C005C006C007C28C1285
:10017E00001E758A18758CFCD28CD007D006D0055F
:10018E00D004D003D002D001D000D0D0D082D08302
:05019E00D0F0D0E032BA
:10035F0053890F438910758BB0758D3CC28FD2AB0B
:01036F00226B
:03001B000201E1FE
:1001E100C0E0C0D00511E511C3941440247511007D
:1001F1000512E512943C40197512000514E514949A
:100201003C400E7514000513E51394184003751353
:0C02110000758BB0758D3CD0D0D0E03271
:05000600D288D2A822FF
:03000300020337BE
:10033700C0E0C0D00510E510D39404400375100049
:05034700D0D0D0E0322F
:05000E00D28AD2AA22F3
:030013000201A344
:1001A300C0E0C0D0E51024FE601514602024027066
:1001B300280512E512C3943C401F751200801A05EE
:1001C30014E514C3943C4011751400800C0513E529
:0E01D30013C3943C4003751300D0D0D0E0322B
:10021D00750817750917E51375F00A84F50AE513C6
:10022D0075F00A8485F00BE51475F00A84F50CE57C
:10023D001475F00A8485F00DE51275F00A84F50E3B
:0A024D00E51275F00A8485F00F2217
:10029000750817750917750A17750B17750C1775FB
:1002A0000D17E51275F00A84F50EE51275F00A8453
:0402B00085F00F22A4
:1002B400750817750917750A17750B17E51475F086
:1002C4000A84F50CE51475F00A8485F00D750E1793
:0402D400750F172269
:1002D800750817750917E51375F00A84F50AE5130B
:1002E80075F00A8485F00B750C17750D17750E17C8
:0402F800750F172245
:10025700D2AF12034C12035F12000612000EE51014
:10026700146011146015146019240370F1D28E12F2
:10027700021D80EAC28E12029080E3C28E1202B47F
:0902870080DCC28E1202D880D581
:030000000200D229
:0C00D200787FE4F6D8FD75811502011955
:1000DE00020257E493A3F8E493A34003F68001F2DF
:1000EE0008DFF48029E493A3F85407240CC8C33323
:1000FE00C4540F4420C8834004F456800146F6DFF2
:10010E00E4800B010204081020408090031DE47E61
:10011E00019360BCA3FF543F30E509541FFEE493E6
:10012E00A360010ECF54C025E060A840B8E493A3AD
:10013E00FAE493A3F8E493A3C8C582C8CAC583CAD8
:10014E00F0A3C8C582C8CAC583CADFE9DEE780BE90
:0103360000C6
:00000001FF
