:100003001201DCAE0CAF0D7C037DE81201878F0873
:10001300AE0CAF0D7C007D641201877C007D0A125B
:1000230001878D09AE0CAF0D7C007D0A1201877C20
:10003300007D0A1201878D0AAE0CAF0D7C007D0A8C
:100043001201878D0BE50F24FE601D1460351460CB
:10005300392403703B050DE50D7002050CD3940F95
:10006300E50C9427402A801BE50D150D7002150C35
:10007300D3E50D940FE50C94274015750C27750DEA
:100083000F800DE4F50CF50D8006750C07750DBE9C
:060093001201250200032A
:10022B00E4FDFCC3ED9FEC9E5015E4FBFA0BBB0009
:0F023B00010AEB647C4A70F50DBD00010C80E4F4
:01024A002291
:10024B003F065B4F666D7D077F6F777C395E7971FB
:0D025B007638373E735C400000FEFDFBF777
:0602680004080808080864
:10012500E50E14601714602114603A24037052E53B
:100135000890024B93F5809002648018E5099002BF
:100145004B93F580900265800BE50A90024B93F581
:1001550080900266E493F5A07F017E0012022B7564
:10016500A0FF050E22E50B90024B93F580900267E8
:10017500E493F5A07F017E0012022B75A0FFE4F544
:010185000E6B
:010186002256
:03026E00010F007D
:1001DC00E4F50FD2B0D2B1D2B2D2B330B00930B153
:1001EC000630B20320B3377F0A7E0012022B30B0E8
:1001FC000930B10630B20320B31820B003750F01DB
:10020C0020B103750F0220B203750F0320B30375E1
:0F021C000F0430B0FD30B1FA30B2F730B3F42236
:0300000002009962
:0C009900787FE4F6D8FD75810F0200E0CE
:10018700BC000BBE0029EF8DF084FFADF022E4CC5C
:10019700F875F008EF2FFFEE33FEEC33FCEE9DEC25
:1001A700984005FCEE9DFE0FD5F0E9E4CEFD22ED6B
:1001B700F8F5F0EE8420D21CFEADF075F008EF2FB5
:1001C700FFED33FD4007985006D5F0F222C398FDA6
:0501D7000FD5F0EA2243
:1000A500020003E493A3F8E493A34003F68001F26E
:1000B50008DFF48029E493A3F85407240CC8C3335C
:1000C500C4540F4420C8834004F456800146F6DF2B
:1000D500E4800B0102040810204080900268E47E51
:1000E500019360BCA3FF543F30E509541FFEE49320
:1000F500A360010ECF54C025E060A840B8E493A3E7
:10010500FAE493A3F8E493A3C8C582C8CAC583CA11
:10011500F0A3C8C582C8CAC583CADFE9DEE780BEC9
:01027100008C
:00000001FF
