:10008F00E4FDFCC3ED9FEC9E5015E4FBFA0BBB00A7
:0F009F00010AEB647C4A70F50DBD00010C80E492
:0100AE00222F
:0300DF0001080015
:1000AF0053877F75985053890F438920758BFA7545
:0700BF008DFAC2ABD28E22C4
:0800D7008F993099FDC29922B6
:1000C6001200AF7F381200D77FF47E0112008F80B6
:0100D600F237
:03000000020003F8
:0C000300787FE4F6D8FD75810802004A01
:10000F000200C6E493A3F8E493A34003F68001F241
:10001F0008DFF48029E493A3F85407240CC8C333F2
:10002F00C4540F4420C8834004F456800146F6DFC1
:10003F00E4800B01020408102040809000DFE47E72
:10004F00019360BCA3FF543F30E509541FFEE493B6
:10005F00A360010ECF54C025E060A840B8E493A37D
:10006F00FAE493A3F8E493A3C8C582C8CAC583CAA8
:10007F00F0A3C8C582C8CAC583CADFE9DEE780BE60
:0100E200001D
:00000001FF
