:1005C600E4FDFCC3ED9FEC9E5015E4FBFA0BBB006B
:0F05D600010AEB647C4A70F50DBD00010C80E456
:0105E50022F3
:1004BE007761697420666F722073657269616C2052
:1004CE00436F6D6D756E69636174696F6E205465EF
:1004DE0073742053746172742E200D0A00706C6553
:1004EE006173652053656E64206120737472696E4A
:0E04FE0067206F6620646174613A0D0A200069
:10063A00538E7F5389F0438901758A66758CFCC293
:06064A008DD2A9D28C2222
:03000B0002057774
:10057700C0E0C0D0C28CE522B40112052FE52FD30D
:1005870094054009752F00752E00752301758A663D
:0A059700758CFCD28CD0D0D0E0327D
:10050C0012063A1205E6D2AF7BFF7A0479BE1200CE
:10051C00887BFF7A0479EB120088E52360FCE4F514
:10052C0023F522FB7A0079241205A17B007A00794D
:06053C002412060580E414
:100621000A2400000000000000000000012F00016A
:080631002E000123000122004C
:1005E60053877F759850538EBF538EFE53890F43A2
:0F05F6008920758BFD758DFDC2ABD2ACD28E22E4
:080003008F993099FDC299228A
:1005A1008B088A09890AAB08AA09A90A1203826081
:1005B10013050AE50A7002050914F9120382FF12F4
:0505C100000380E222AE
:06000E00AE071200032200
:0300230002054291
:10054200C0E0C0D075D000C00030981DC29875229E
:1005520001E52EC3940A500B7424252EF8A69905A2
:100562002E8003752E0A752F00309902C299D00091
:05057200D0D0D0E03202
:060605008B088A09890A36
:10060B00E4FFAB08AA09A90A8F82758300E41203E1
:05061B009B0FBF0AED7A
:0106200022B7
:03000000020432C5
:0C043200787FE4F6D8FD75812F02047974
:10038200BB010689828A83E0225002E722BBFE0279
:09039200E32289828A83E49322AC
:10039B00F8BB010DE58229F582E5833AF583E8F098
:1003AB00225006E92582C8F622BBFE05E92582C844
:0203BB00F2222C
:10002600E517240BF8E60517227808300702780B47
:10003600E475F0011203FC0203822000EB7F2ED24E
:10004600008018EF540F2490D43440D4FF30040BB2
:10005600EF24BFB41A0050032461FFE518600215AF
:1000660018051BE51B7002051A30070D7808E475A4
:10007600F0011203FCEF0203EA02000E7403D2073A
:100086008003E4C207F5178B088A09890AE4F51884
:10009600F51AF51BE51860077F2012006180F575DB
:1000A60019FFC201C200C202C203C205C206C208CB
:1000B60012002FFF700D3007057F00120072AF1B74
:1000C600AE1A22B4255FC2D5C20412002FFF24D077
:1000D600B40A00501A75F00A781830D50508B6FF2C
:1000E6000106C6A426F620D5047002D20380D924C0
:1000F600CFB41A00EF5004C2E5D204020272D20154
:1001060080C6D20080C0D20280BCD2D580BAD205C9
:1001160080B47F201200612002077401B5180040E8
:10012600F1120026FF12006102009AD208D2068060
:1001360095120026FB120026FA120026F94A4B7089
:100146000679437A037BFF20022EE518602A7E009B
:100156008E827583001203BD60060EEE651970F07F
:10016600C2D5EBC0E0EAC0E0E9C0E0EE1202B9D0C9
:10017600E0F9D0E0FAD0E0FB120382FF60AAEBC000
:10018600E0EAC0E0E9C0E0120061D0E02401F9D065
:10019600E03400FAD0E0FBE5190460DCD519D9801B
:1001A600877BFF7A0279B5D202809C79108002792A
:1001B60008C206C2088008D2D5790A8004790AC224
:1001C600D5E519047002F519E4FAFDFEFF120026C2
:1001D600FC7B08200113120026FD7B1030000A125A
:1001E6000026FE120026FF7B20EC3382D592D550E6
:1001F60013C3E43000069FFFE49EFEE42001039D46
:10020600FDE49CFCE4CBF8C201EC700CCFCECDCC67
:10021600E824F8F870F38017C3EF33FFEE33FEEDF2
:1002260033FDEC33FCEB33FB994002FB0FD8E9EBD3
:10023600300105F8D0E0C448B201C0E00AEC4D4EEA
:100246004F78207B0070C2EAB5190040BCC0E012AE
:1002560002BBD0F0D0E0200104C4C0E0C4B201C0AB
:10026600F012004AD0F0D5F0EB02009A12040C010D
:10027600375301B15801084C01044201B54F01BD85
:0F0286004401BD49011D4301C35501A74601A70E
:100295004501A747036350010C2D01102E01332B97
:1002A500011423013120034C2A00CC480000012B06
:1002B5003F3F3F00790AA2D5200314300509B91044
:1002C500020404B9080104A2D52006025001042045
:1002D50002689202B518005034C0E07F203003193F
:1002E5007F30A20272067205500F120312C202C2BB
:1002F50006C205C2087F30800F300503E9C0E01251
:100305000061300503D0E0F9D0E0B518CC30051711
:100315007F30B9100C1200617F583004077F788058
:1003250003B908031200613002057F2D0200617FC9
:10033500202008F87F2B2006F322920280CF286E1A
:10034500756C6C2900D2011200263001F8C20178C3
:100355001830D50108F60200CC2D5043495812003B
:10036500262403B405004001E490035E9312005275
:0D037500743A120052D2037518040201B14F
:10043E0002050CE493A3F8E493A34003F68001F2C3
:10044E0008DFF48029E493A3F85407240CC8C333BF
:10045E00C4540F4420C8834004F456800146F6DF8E
:10046E00E4800B0102040810204080900621E47EF7
:10047E00019360BCA3FF543F30E509541FFEE49383
:10048E00A360010ECF54C025E060A840B8E493A34A
:10049E00FAE493A3F8E493A3C8C582C8CAC583CA75
:1004AE00F0A3C8C582C8CAC583CADFE9DEE780BE2D
:0106390000C0
:1003BD00BB010CE58229F582E5833AF583E02250F5
:1003CD0006E92582F8E622BBFE06E92582F8E2223F
:0D03DD00E58229F582E5833AF583E4932259
:1003EA00BB010689828A83F0225002F722BBFE01F2
:0203FA00F322EC
:1003FC00FAE6FB0808E6F925F0F618E6CA3AF62202
:10040C00D083D082F8E4937012740193700DA3A37F
:10041C0093F8740193F5828883E473740293686093
:06042C00EFA3A3A380DF93
:00000001FF
