:10082800E4FDFCC3ED9FEC9E5015E4FBFA0BBB0006
:0F083800010AEB647C4A70F50DBD00010C80E4F1
:01084700228E
:100807003F065B4F666D7D077F6F777C395E797139
:100817007638373E735C400000FEFDFBF7EFDFBF25
:010827007F51
:0607E200041101090802E8
:10046700E519B408004003020516900478F8282817
:100477007302049002049D0204AA0204B70204C492
:100487000204D10204DE0204FAE51190080793F58D
:1004970080900820804CE51290080793F58090081B
:1004A70021803FE51390080793F58090082280325A
:1004B700E51490080793F5809008238025E51590AB
:1004C700080793F5809008248018E516900807938D
:1004D700F580900825800BE51790080793F5809025
:1004E7000826E493F5A07F017E0012082875A0FF77
:1004F700051922E51890080793F580900827E493DB
:0F050700F5A07F017E0012082875A0FFE4F5190A
:0105160022C2
:1007E800011000010F00010C00020D0000020A00B8
:0507F8000002080000F2
:07084800D288D2A8D2AF2232
:0300030002075998
:10075900C0E0C0F0C083C082C0D075D000C000C066
:1007690001C002C003C004C005C006C0077F0A7EDD
:100779000012082820B203751001D007D006D00551
:10078900D004D003D002D001D000D0D0D082D08301
:05079900D0F0D0E032B9
:10000600E4F51812084875900FE5106401600302C4
:100016000252F5101203B3EFB41000400302023A85
:1000260090002DF828287302005D02008C0200B8AB
:100036000200E302010E02013902016402018E028E
:1000460001B80201E202023A02023A02020F020279
:100056003A020218020228E518B40107E4F50DF584
:100066000E801A1203B3EFFB7A00AE0DAF0E7C00C2
:100076007D0A120258EF2BF50EEA3EF50D750F16A6
:1000860075180102023AE518700BF50D750E01752B
:10009600180102020A1203B3EFFB7A00AE0DAF0E8F
:1000A6007C007D0A120258EF2BF50EEA3EF50D0292
:1000B600020AE518700AF50D750E02751801801A08
:1000C6001203B3EFFB7A00AE0DAF0E7C007D0A1271
:1000D6000258EF2BF50EEA3EF50D02020AE51870FE
:1000E6000AF50D750E03751801801A1203B3EFFB9E
:1000F6007A00AE0DAF0E7C007D0A120258EF2BF58A
:100106000EEA3EF50D02020AE518700AF50D750EA7
:1001160004751801801A1203B3EFFB7A00AE0DAF17
:100126000E7C007D0A120258EF2BF50EEA3EF50D05
:1001360002020AE518700AF50D750E05751801809C
:100146001A1203B3EFFB7A00AE0DAF0E7C007D0AE8
:10015600120258EF2BF50EEA3EF50D02020AE518DB
:10016600700AF50D750E06751801801A1203B3EFA5
:10017600FB7A00AE0DAF0E7C007D0A120258EF2B03
:10018600F50EEA3EF50D807CE518700AF50D750E44
:1001960007751801801A1203B3EFFB7A00AE0DAF94
:1001A6000E7C007D0A120258EF2BF50EEA3EF50D85
:1001B6008052E518700AF50D750E08751801801A3B
:1001C6001203B3EFFB7A00AE0DAF0E7C007D0A1270
:1001D6000258EF2BF50EEA3EF50D8028E518700A59
:1001E600F50D750E09751801801A1203B3EFFB7A27
:1001F60000AE0DAF0E7C007D0A120258EF2BF50EF5
:10020600EA3EF50D750F16802B850D0A850E0BE45B
:100216008005E4F50AF50BF50DF50EF518750F19C1
:100226008012E50B250EF509E50A350DF508E4F50E
:1002360018750F1EE50FB41603120517E50FB4194E
:10024600031205A9E50FB41E0312063B120467024A
:02025600000F97
:10051700751116AE0DAF0EE4FCFD7B407A42790FE4
:10052700F812079E8F12AE0DAF0EE4FCFD7BA07A8A
:10053700867901F812079EE47B0AFAF9F812079EFA
:10054700AF038F13AE0DAF0E7C277D1012026A7CAE
:10055700007D0A12026A8D14AE0DAF0E7C037DE892
:1005670012026A7C007D0A12026A8D15AE0DAF0E6B
:100577007C007D6412026A7C007D0A12026A8D1675
:10058700AE0DAF0E7C007D0A12026A7C007D0A1256
:10059700026A8D17AE0DAF0E7C007D0A12026A8DBE
:0205A700182218
:1005A900751116AE0AAF0BE4FCFD7B407A42790F58
:1005B900F812079E8F12AE0AAF0BE4FCFD7BA07AFE
:1005C900867901F812079EE47B0AFAF9F812079E68
:1005D900AF038F13AE0AAF0B7C277D1012026A7C22
:1005E900007D0A12026A8D14AE0AAF0B7C037DE806
:1005F90012026A7C007D0A12026A8D15AE0AAF0BDF
:100609007C007D6412026A7C007D0A12026A8D16E2
:10061900AE0AAF0B7C007D0A12026A7C007D0A12C9
:10062900026A8D17AE0AAF0B7C007D0A12026A8D31
:02063900182285
:10063B00751116AE08AF09E4FCFD7B407A42790FC9
:10064B00F812079E8F12AE08AF09E4FCFD7BA07A6F
:10065B00867901F812079EE47B0AFAF9F812079ED5
:10066B00AF038F13AE08AF097C277D1012026A7C93
:10067B00007D0A12026A8D14AE08AF097C037DE877
:10068B0012026A7C007D0A12026A8D15AE08AF0950
:10069B007C007D6412026A7C007D0A12026A8D1650
:1006AB00AE08AF097C007D0A12026A7C007D0A123B
:1006BB00026A8D17AE08AF097C007D0A12026A8DA3
:0206CB001822F3
:0907FD0001160001170001151698
:1003B3007590F0859016E59064F0601C7F0A7E00CE
:1003C300120828E59064F0600FE59054F0F5167577
:1003D300900FE590540FF517E51625171202BF0489
:1003E3006177045C7B04577D04527E044DB7044857
:1003F300BB0443BD043EBE0439D70434DB042FDD04
:10040300042ADE0425E70420EB041BED0416EE00AA
:100413000004647515018049751502804475150340
:10042300803F751504803A7515058035751506806E
:1004330030751507802B75150880267515098021E1
:10044300E4F515801C75150A801775150B80127558
:10045300150C800D75150D800875150E8003751527
:030463000FAF15C3
:010466002273
:030000000206CD28
:0C06CD00787FE4F6D8FD7581190207144F
:10025800EF8DF0A4A8F0CF8CF0A428CE8DF0A42EBA
:02026800FE2274
:10026A00BC000BBE0029EF8DF084FFADF022E4CC78
:10027A00F875F008EF2FFFEE33FEEC33FCEE9DEC41
:10028A00984005FCEE9DFE0FD5F0E9E4CEFD22ED87
:10029A00F8F5F0EE8420D21CFEADF075F008EF2FD1
:1002AA00FFED33FD4007985006D5F0F222C398FDC2
:0502BA000FD5F0EA225F
:10079E00C2D5E830E70FB2D5E4C39BFBE49AFAE486
:1007AE0099F9E498F8EC30E717B2D51207D4120392
:1007BE0021E4C39BFBE49AFAE499F9E498F88003E8
:1007CE0012032130D50DE4C39FFFE49EFEE49DFD90
:0407DE00E49CFC2279
:1002BF00D083D082F8E4937012740193700DA3A3CE
:1002CF0093F8740193F5828883E4737402936860E2
:0602DF00EFA3A3A380DFE2
:1006D900020006E493A3F8E493A34003F68001F231
:1006E90008DFF48029E493A3F85407240CC8C33322
:1006F900C4540F4420C8834004F456800146F6DFF1
:10070900E4800B01020408102040809007E2E47E97
:10071900019360BCA3FF543F30E509541FFEE493E5
:10072900A360010ECF54C025E060A840B8E493A3AC
:10073900FAE493A3F8E493A3C8C582C8CAC583CAD7
:10074900F0A3C8C582C8CAC583CADFE9DEE780BE8F
:0108060000F1
:1002E50075F008758200EF2FFFEE33FECD33CDCCD0
:1002F50033CCC58233C5829BED9AEC99E582984053
:100305000CF582EE9BFEED9AFDEC99FC0FD5F0D62F
:10031500E4CEFBE4CDFAE4CCF9A88222B800C1B959
:100325000059BA002DEC8BF084CFCECDFCE5F0CB97
:10033500F97818EF2FFFEE33FEED33FDEC33FCEBD0
:1003450033FB10D703994004EB99FB0FD8E5E4F98B
:10035500FA227818EF2FFFEE33FEED33FDEC33FC78
:10036500C933C910D7059BE99A4007EC9BFCE99A6C
:10037500F90FD8E0E4C9FAE4CCFB2275F010EF2FB1
:10038500FFEE33FEED33FDCC33CCC833C810D707B1
:100395009BEC9AE899400AED9BFDEC9AFCE899F8EC
:0E03A5000FD5F0DAE4CDFBE4CCFAE4C8F9227F
:00000001FF
