:10067700E4FDFCC3ED9FEC9E5015E4FBFA0BBB00B9
:0F068700010AEB647C4A70F50DBD00010C80E4A4
:010696002241
:100656003F065B4F666D7D077F6F777C395E7971EC
:100666007638373E735C400000FEFDFBF7EFDFBFD8
:010676007F04
:0A061E0008160000000000000000B4
:10021B00E521B4080040030202CA90022CF82828FA
:10022B007302024402025102025E02026B02027866
:10023B000202850202920202AEE51690065693F573
:10024B008090066F804CE51790065693F5809006CC
:10025B0070803FE51890065693F5809006718032BA
:10026B00E51990065693F5809006728025E51A9055
:10027B00065693F5809006738018E51B90065693EF
:10028B00F580900674800BE51C90065693F58090D4
:10029B000675E493F5A07F017E0012067775A0FF2B
:1002AB00052122E51D90065693F580900676E49382
:0F02BB00F5A07F017E0012067775A0FFE4F52104
:0102CA002211
:10062800011400011200010A00010D00011500016A
:100638001300011100010E00020F0000020B000060
:0406480002080000A4
:07069700D288D2A8D2AF22E5
:030003000205D91A
:1005D900C0E0C0F0C083C082C0D075D000C000C0E8
:1005E90001C002C003C004C005C006C0077F0A7E5F
:1005F9000012067720B203751401D007D006D00582
:10060900D004D003D002D001D000D0D0D082D08382
:05061900D0F0D0E0323A
:1000060012069775900FE51464016003020161F50D
:1000160014120167EFB41000400302014990002A50
:10002600F828287302005A02007902007902007942
:100036000200790200790200790200790200790251
:1000460000790200AF0200BA0200DC0200C502001D
:10005600D00200EC120167EFFB7A00AE0FAF107C06
:10006600007D0A1204C0EF2BF510EA3EF50F75115C
:10007600018030E511700D120167750F008F107544
:100086001101801FE511B4011A120167EFFB7A0016
:10009600AE0FAF107C007D0A1204C0EF2BF510EAFC
:1000A6003EF50F751216020149850F0B85100C756A
:1000B6000A01801F850F0B85100C750D01801485B4
:1000C6000F0B85100C7515018009850F0B85100C1B
:1000D600751301E48005E4F50BF50CF50FF510F545
:1000E60011751219805DE50AB4010FE4F50AE50CF5
:1000F6002510F509E50B350FF508E50DB40110E4FB
:10010600F50DC3E50C9510F509E50B950FF508E51A
:1001160015B40112E4F515AC0FAD10AE0BAF0C1211
:1001260004C08E088F09E513B40112E4F513AC0F71
:10013600AD10AE0BAF0C1204D28E088F09E4F51188
:1001460075121EE512B416031202CBE512B419039A
:10015600120372E512B41E0312041912021B0200E6
:010166000C8C
:1002CB00751617751717751817C3E5109410E50FEA
:1002DB0094274016AE0FAF107C277D101204D27CF2
:1002EB00007D0A1204D28D198003751917C3E5100E
:1002FB0094E8E50F94034016AE0FAF107C037DE836
:10030B001204D27C007D0A1204D28D1A8003751A56
:10031B0017C3E5109464E50F94004016AE0FAF10B1
:10032B007C007D641204D27C007D0A1204D28D1BEA
:10033B008003751B17C3E510940AE50F9400401654
:10034B00AE0FAF107C007D0A1204D27C007D0A1226
:10035B0004D28D1C8003751C17AE0FAF107C007D73
:07036B000A1204D28D1D22CD
:10037200751617751717751817C3E50C9410E50B4A
:1003820094274016AE0BAF0C7C277D101204D27C52
:10039200007D0A1204D28D198003751917C3E50C6A
:1003A20094E8E50B94034016AE0BAF0C7C037DE89A
:1003B2001204D27C007D0A1204D28D1A8003751AAF
:1003C20017C3E50C9464E50B94004016AE0BAF0C1A
:1003D2007C007D641204D27C007D0A1204D28D1B43
:1003E2008003751B17C3E50C940AE50B94004016B5
:1003F200AE0BAF0C7C007D0A1204D27C007D0A1287
:1004020004D28D1C8003751C17AE0BAF0C7C007DD3
:070412000A1204D28D1D2225
:10041900751617751717751817C3E5099410E508A8
:1004290094274016AE08AF097C277D101204D27CB0
:10043900007D0A1204D28D198003751917C3E509C5
:1004490094E8E50894034016AE08AF097C037DE8FB
:100459001204D27C007D0A1204D28D1A8003751A07
:1004690017C3E5099464E50894004016AE08AF097E
:100479007C007D641204D27C007D0A1204D28D1B9B
:100489008003751B17C3E509940AE5089400401613
:10049900AE08AF097C007D0A1204D27C007D0A12E5
:1004A90004D28D1C8003751C17AE08AF097C007D32
:0704B9000A1204D28D1D227E
:09064C00011F00012000011E162F
:100167007590F085901FE59064F0601C7F0A7E0013
:10017700120677E59064F0600FE59054F0F51F756F
:10018700900FE590540FF520E51F25201205270253
:10019700157702107B020B7D02067E0201B701FC78
:1001A700BB01F7BD01F2BE01EDD701E8DB01E3DDDD
:1001B70001DEDE01D9E701D4EB01CFED01CAEE0084
:1001C700000218751E018049751E028044751E03C2
:1001D700803F751E04803A751E058035751E0680A2
:1001E70030751E07802B751E088026751E09802115
:1001F700E4F51E801C751E0A8017751E0B8012758C
:100207001E0C800D751E0D8008751E0E8003751E51
:030217000FAF1E08
:01021A0022C1
:0300000002054DA9
:0C054D00787FE4F6D8FD7581210205944A
:1004C000EF8DF0A4A8F0CF8CF0A428CE8DF0A42E50
:0204D000FE220A
:1004D200BC000BBE0029EF8DF084FFADF022E4CC0E
:1004E200F875F008EF2FFFEE33FEEC33FCEE9DECD7
:1004F200984005FCEE9DFE0FD5F0E9E4CEFD22ED1D
:10050200F8F5F0EE8420D21CFEADF075F008EF2F66
:10051200FFED33FD4007985006D5F0F222C398FD57
:050522000FD5F0EA22F4
:10052700D083D082F8E4937012740193700DA3A363
:1005370093F8740193F5828883E473740293686077
:06054700EFA3A3A380DF77
:10055900020006E493A3F8E493A34003F68001F2B2
:1005690008DFF48029E493A3F85407240CC8C333A3
:10057900C4540F4420C8834004F456800146F6DF72
:10058900E4800B010204081020408090061EE47EDE
:10059900019360BCA3FF543F30E509541FFEE49367
:1005A900A360010ECF54C025E060A840B8E493A32E
:1005B900FAE493A3F8E493A3C8C582C8CAC583CA59
:1005C900F0A3C8C582C8CAC583CADFE9DEE780BE11
:0106550000A4
:00000001FF
