:10043500E4FDFCC3ED9FEC9E5015E4FBFA0BBB00FD
:0F044500010AEB647C4A70F50DBD00010C80E4E8
:010454002285
:100414003F065B4F666D7D077F6F777C395E797130
:100424007638373E735C400000FEFDFBF7EFDFBF1C
:010434007F48
:0A04550008081717171717171700EC
:1000FD00E517B4080040030201AC90010EF8282862
:10010D007302012602013302014002014D02015A20
:10011D00020167020174020190E50890041493F541
:10012D008090042D804CE50990041493F580900483
:10013D002E803FE50A90041493F58090042F8032B1
:10014D00E50B90041493F5809004308025E50C9018
:10015D00041493F5809004318018E50D90041493E8
:10016D00F580900432800BE50E90041493F5809089
:10017D000433E493F5A07F017E0012043575A0FFD2
:10018D00051722E50F90041493F580900434E49341
:0F019D00F5A07F017E0012043575A0FFE4F51771
:0101AC002230
:09045F000112000111000110005E
:10000300E4F5161201ADE515B4100040030200DE5D
:1000130090001AF828287302004A02005202005D79
:1000230002006802007302007E020089020094024B
:10003300009F0200AA0200C50200DE0200DE0200E9
:10004300DE0200DE0200D2E5167068F512805FE57D
:1000530016700575120180568059E51670057512E4
:1000630002804B804EE51670057512038040804375
:10007300E516700575120480358038E51670057530
:100083001205802A802DE5167005751206801F80E3
:1000930022E516700575120780148017E5167005A2
:1000A3007512088009800CE516700875120975161B
:1000B300018028E51275F00AA42515F512751516A9
:1000C3008019851211E4F512F516751519800CE5E2
:1000D300112512F510E4F51675151EE515B4160372
:1000E3001203D5E515B41903120396E515641E60D2
:0A00F3000302000612035702000684
:10035700750817750917750A17750B17AF107E0003
:100367007C037DE81202DC8F0CE51075F064847560
:10037700F00A8485F00DE51075F00A8475F00A849B
:0F03870085F00EE51075F00A8485F00F0200FD79
:10039600750817750917750A17750B17AF117E00C3
:1003A6007C037DE81202DC8F0CE51175F064847520
:1003B600F00A8485F00DE51175F00A8475F00A845B
:0F03C60085F00EE51175F00A8485F00F0200FD39
:1003D500750817750917750A17750B17AF127E0083
:1003E5007C037DE81202DC8F0CE51275F0648475E0
:1003F500F00A8485F00DE51275F00A8475F00A841B
:0F04050085F00EE51275F00A8485F00F0200FDF8
:0904680001151601130001140036
:1001AD007590F0859013E59064F0601C7F0A7E00D9
:1001BD00120435E59064F0600FE59054F0F5137579
:1001CD00900FE590540FF514E51325141203310229
:1001DD004C7702487B02447D02407E023CB70238D8
:1001ED00BB0234BD0230BE022CD70228DB0224DD57
:1001FD000220DE021CE70218EB0214ED0210EE00E5
:10020D0000024F7515012275150222751503227511
:10021D00150422751505227515062275150722750B
:10022D0015082275150922E4F5152275150A227592
:10023D00150B2275150C2275150D2275150E2275CF
:03024D00150F2268
:03000000020250A9
:0C025000787FE4F6D8FD75811702029754
:1002DC00BC000BBE0029EF8DF084FFADF022E4CC06
:1002EC00F875F008EF2FFFEE33FEEC33FCEE9DECCF
:1002FC00984005FCEE9DFE0FD5F0E9E4CEFD22ED15
:10030C00F8F5F0EE8420D21CFEADF075F008EF2F5E
:10031C00FFED33FD4007985006D5F0F222C398FD4F
:05032C000FD5F0EA22EC
:10033100D083D082F8E4937012740193700DA3A35B
:1003410093F8740193F5828883E47374029368606F
:06035100EFA3A3A380DF6F
:10025C00020003E493A3F8E493A34003F68001F2B5
:10026C0008DFF48029E493A3F85407240CC8C333A3
:10027C00C4540F4420C8834004F456800146F6DF72
:10028C00E4800B0102040810204080900455E47EA9
:10029C00019360BCA3FF543F30E509541FFEE49367
:1002AC00A360010ECF54C025E060A840B8E493A32E
:1002BC00FAE493A3F8E493A3C8C582C8CAC583CA59
:1002CC00F0A3C8C582C8CAC583CADFE9DEE780BE11
:01047100008A
:00000001FF
