:1004E200E4FDFCC3ED9FEC9E5015E4FBFA0BBB0050
:0F04F200010AEB647C4A70F50DBD00010C80E43B
:0105010022D7
:100583006572723A4C454453686F775374722829E5
:010593000067
:1004C100E4FF7580FFC2A6D2A5D2A7AE80C2A70F56
:1004D100EFD394325004EE20E7EF7F017E00020457
:0104E100E238
:100572008F241204C1C2A6C2A5852480D2A7C2A715
:010582002256
:07051D00758300120112FFBB
:100524008F241204C1D2A6C2A5852480D2A7C2A753
:0105340022A4
:10054A007F381205727F0C1205727F061205727FC0
:04055A000102057223
:10055E008F5CED7004E55C8004E55C24404480FF14
:04056E0012057222DE
:0A038A008F258D268B278A288929EC
:10039400782B7C007D007BFF7A0579837E007F11BA
:1003A4001200D3E526600464017033E525C394008C
:1003B400402CE525D3940F5025AD26AF2512055EBC
:1003C400AB27AA28A9291200F960460529E5297056
:1003D40002052814F91200F9FF12052480E27F8037
:1003E400120572E4F52A7B007A00792B120535C3D5
:1003F400E52A9FEE6480F87480985015742B252AA2
:10040400F8E6FF1205247F647E001204E2052A80C8
:01041400D512
:0104150022C4
:060494008B588A59895AB9
:10049A007F40120572E4F55BAB58AA59A95A855BED
:1004AA008212051D055BE55BC3940840EB7F85124C
:0704BA000572E4FF020524B6
:08045A008E508F518D528B531F
:10046200E4F557E55375F008A424402557FF12051B
:1004720072AB54AA55A95685578212051D0557E538
:1004820057C3940840DDAF51AD5212055EAF53021F
:0204920005243F
:0E0243008F3F8E3E8D3D8C3C8B408A41894220
:10025100EC33501C1201518F3F8E3E8D3D8C3C057D
:1002610042E5427002054114F9742D12013F054423
:10027100E47B0AFAF9F8AF3FAE3EAD3DAC3C120467
:1002810016EB2430FFAE43054374452EF8A607AFA5
:100291003FAE3EAD3DAC3CE47B0AFAF9F8120416E0
:1002A1008F3F8E3E8D3D8C3CE4FFFEFDFCAB3FAAB3
:1002B1003EA93DA83CD312015F50B5E5432544F565
:1002C10044AF431543EFD39400401B74452543F8D5
:1002D100E6FFAB400542E542AA417002054114F92F
:1002E100EF12013F80DBAB40AA41A942E412013F7A
:0202F100AF4418
:0102F30022E8
:1005020048656C6C6F204C434420313630320047D2
:0B051200726567204765203636360012
:1002F40078087C007D007BFF7A0579027E007F0F01
:100304001200D378177C007D007BFF7A0579117E7B
:10031400007F0C1200D312054A7F0A7E001204E209
:100324007F80120572E4F5237B007A0079081205B8
:1003340035C3E5239FEE6480F8748098500E7408EA
:100344002523F8E6FF120524052380DC7FC012056F
:1003540072E4F5237B007A007917120535C3E5238F
:100364009FEE6480F8748098500E74172523F8E685
:10037400FF120524052380DC7F101205727F207E86
:06038400031204E280F206
:0300000002059462
:0C059400787FE4F6D8FD75815C0202F46B
:10000300E709F608DFFA8046E709F208DFFA803EDF
:1000130088828C83E709F0A3DFFA8032E309F608CC
:10002300DFFA8078E309F208DFFA807088828C8334
:10003300E309F0A3DFFA806489828A83E0A3F608E8
:10004300DFFA805889828A83E0A3F208DFFA804CC2
:1000530080D280FA80C680D4806980F28033801099
:1000630080A680EA809A80A880DA80E280CA803302
:1000730089828A83ECFAE493A3C8C582C8CCC5837A
:10008300CCF0A3C8C582C8CCC583CCDFE9DEE7804A
:100093000D89828A83E493A3F608DFF9ECFAA9F0C9
:1000A300EDFB2289828A83ECFAE0A3C8C582C8CC1F
:1000B300C583CCF0A3C8C582C8CCC583CCDFEADE38
:1000C300E880DB89828A83E493A3F208DFF980CC9A
:1000D30088F0EF60010E4E60C388F0ED2402B40493
:1000E3000050B9F582EB2402B4040050AF2323453A
:0600F3008223900053730C
:1000F900BB010689828A83E0225002E722BBFE0205
:09010900E32289828A83E4932237
:10011200BB010CE58229F582E5833AF583E02250A2
:1001220006E92582F8E622BBFE06E92582F8E222EC
:0D013200E58229F582E5833AF583E4932206
:10013F00BB010689828A83F0225002F722BBFE019F
:02014F00F32299
:10041600C2D5E830E70FB2D5E4C39BFBE49AFAE411
:1004260099F9E498F8EC30E717B2D512044C1201AA
:10043600B1E4C39BFBE49AFAE499F9E498F88003E3
:100446001201B130D50DE4C39FFFE49EFEE49DFD8D
:04045600E49CFC2204
:0E015100C3E49FFFE49EFEE49DFDE49CFC22BF
:10015F00EB9FF5F0EA9E42F0E99D42F0EC6480C817
:06016F0064809845F022B7
:10053500E4FFFE1200F9600C0FEF70010E09E9707F
:05054500F20A80EF2224
:1001750075F008758200EF2FFFEE33FECD33CDCC41
:1001850033CCC58233C5829BED9AEC99E5829840C4
:100195000CF582EE9BFEED9AFDEC99FC0FD5F0D6A1
:1001A500E4CEFBE4CDFAE4CCF9A88222B800C1B9CB
:1001B5000059BA002DEC8BF084CFCECDFCE5F0CB09
:1001C500F97818EF2FFFEE33FEED33FDEC33FCEB42
:1001D50033FB10D703994004EB99FB0FD8E5E4F9FD
:1001E500FA227818EF2FFFEE33FEED33FDEC33FCEA
:1001F500C933C910D7059BE99A4007EC9BFCE99ADE
:10020500F90FD8E0E4C9FAE4CCFB2275F010EF2F22
:10021500FFEE33FEED33FDCC33CCC833C810D70722
:100225009BEC9AE899400AED9BFDEC9AFCE899F85D
:0E0235000FD5F0DAE4CDFBE4CCFAE4C8F922F0
:00000001FF
