:0D016900020A0000010C000109000108005D
:0E017A0012009AE50D24FD60028002B28C2274
:100156005389F0438901758A06758CFFC28DD2A931
:03016600D2AF22F3
:03000B000200E907
:1000E900C0E0C0D0050BE50B7002050AC394D0E54A
:1000F9000A94074009750A00750B00630CFFE50CAB
:10010900700E0509E509C394034005750900B2B7E6
:10011900E50C600E0508E508C39404400575080060
:0D012900B2B7758A06758CFFD0D0D0E032D9
:0800030012015612017A80FB84
:03017600010D0078
:10009A00E4F50DD2B0D2B1D2B2D2B330B00930B198
:1000AA000630B20320B3377F0A7E0012013630B021
:1000BA000930B10630B20320B31820B003750D0120
:1000CA0020B103750D0220B203750D0320B3037529
:0F00DA000D0430B0FD30B1FA30B2F730B3F4227C
:10013600E4FDFCC3ED9FEC9E5015E4FBFA0BBB00FF
:0F014600010AEB647C4A70F50DBD00010C80E4EA
:010155002287
:0300000002000EED
:0C000E00787FE4F6D8FD75810D020055E6
:10001A00020003E493A3F8E493A34003F68001F2F9
:10002A0008DFF48029E493A3F85407240CC8C333E7
:10003A00C4540F4420C8834004F456800146F6DFB6
:10004A00E4800B0102040810204080900169E47EDC
:10005A00019360BCA3FF543F30E509541FFEE493AB
:10006A00A360010ECF54C025E060A840B8E493A372
:10007A00FAE493A3F8E493A3C8C582C8CAC583CA9D
:10008A00F0A3C8C582C8CAC583CADFE9DEE780BE55
:010179000085
:00000001FF
