:1002E800E4FDFCC3ED9FEE6480F8EC648098501543
:1002F800E4FBFA0BBB00010AEB647C4A70F50DBD08
:0503080000010C80DE85
:01030D0022CD
:100003007508077509DA750A02750BCC750CF4755A
:100013000D47750E00750F1EE4F512F513E4F51088
:10002300F5111202BF0511E51170020510C394907A
:10003300E510940140ECE4F5A07F907E011202E804
:100043000513E51370020512C39405E512940040ED
:10005300CCAE08AF097C037DE812026A8F15AE08A7
:10006300AF097C007D6412026A7C007D0A12026A79
:100073008D16AE08AF097C007D0A12026A7C007DF2
:100083000A12026A8D17AE08AF097C007D0A1202BC
:100093006A8D18AE0AAF0B7C037DE812026A7C00FE
:1000A3007D0A12026A8D19AE0AAF0B7C007D6412C1
:1000B300026A7C007D0A12026A8D1AAE0AAF0B7CBB
:1000C300007D0A12026A7C007D0A12026A8D1BAE51
:1000D3000AAF0B7C007D0A12026A8D1CE4F510F551
:1000E300111202BF0511E51170020510C394D0E58A
:1000F30010940740EC7FF47E011202E87515177522
:100103001617751717AE0CAF0D7C277D1012026AF8
:100113007C007D0A12026A8D18AE0CAF0D7C037D44
:10012300E812026A7C007D0A12026A8D19AE0CAFD6
:100133000D7C007D6412026A7C007D0A12026A8DC6
:100143001AAE0CAF0D7C007D0A12026A7C007D0A98
:1001530012026A8D1BAE0CAF0D7C007D0A12026A7F
:100163008D1CE4F510F5111202BF0511E5117002A3
:100173000510C394D0E510940740EC7FF47E011280
:1001830002E875151775161775171775181775196A
:1001930017751A17AE0EAF0F7C007D0A12026A7C28
:1001A300007D0A12026A8D1BAE0EAF0F7C007D0A22
:1001B30012026A8D1CE4F510F51175A0031202BF3B
:1001C3000511E51170020510C394D0E510940740A2
:0B01D300E97FF47E011202E8020054F4
:10030E00C0F9A4B0999282F880908883C6A1868E97
:10031E0089C7C8C18CA3BFFF01020408102040800A
:0A032E000815080808080808080868
:1002BF0074152514F8E690030E93F590E51490034A
:1002CF002693F5A07F017E001202E87590FF0514BA
:0802DF00E514B40803E4F51472
:0102E70022F4
:030000000201DE1C
:0C01DE00787FE4F6D8FD75811C02022534
:10026A00BC000BBE0029EF8DF084FFADF022E4CC78
:10027A00F875F008EF2FFFEE33FEEC33FCEE9DEC41
:10028A00984005FCEE9DFE0FD5F0E9E4CEFD22ED87
:10029A00F8F5F0EE8420D21CFEADF075F008EF2FD1
:1002AA00FFED33FD4007985006D5F0F222C398FDC2
:0502BA000FD5F0EA225F
:1001EA00020003E493A3F8E493A34003F68001F228
:1001FA0008DFF48029E493A3F85407240CC8C33316
:10020A00C4540F4420C8834004F456800146F6DFE4
:10021A00E4800B010204081020408090032EE47E43
:10022A00019360BCA3FF543F30E509541FFEE493D9
:10023A00A360010ECF54C025E060A840B8E493A3A0
:10024A00FAE493A3F8E493A3C8C582C8CAC583CACB
:10025A00F0A3C8C582C8CAC583CADFE9DEE780BE83
:0103380000C4
:00000001FF
