:0502060012013280FB33
:0901F600010E16010C00010D00C0
:100003007580F085800CE58064F0601C7F0A7E00BB
:100013001201B9E58064F0600FE58054F0F50C75CA
:10002300800FE580540FF50DE50C250D12019300AB
:10003300A277009E7B009A7D00967E0092B7008E89
:10004300BB008ABD0086BE0082D7007EDB007ADD5E
:100053000076DE0072E7006EEB006AED0066EE00EC
:100063000000A5750E0122750E0222750E0322757E
:100073000E0422750E0522750E0622750E072275D3
:100083000E0822750E0922E4F50E22750E0A22755A
:100093000E0B22750E0C22750E0D22750E0E227597
:0300A3000E0F221B
:1001B900E4FDFCC3ED9FEC9E5015E4FBFA0BBB007C
:0F01C900010AEB647C4A70F50DBD00010C80E467
:0101D8002204
:1001D900C0F9A4B0999282F880908883C6A1868ECE
:0D01E90089C7C8C18CA3BFFFFF1020408054
:0601FF00040808080808CE
:10013200E50F14601714602114603A24037051E52E
:10014200089001D993F5909001F28018E509900189
:10015200D993F5909001F3800BE50A9001D993F5BC
:10016200909001F4E493F5A07F017E001201B9E4BE
:10017200F5A0050F22E50B9001D993F5909001F5BA
:10018200E493F5A07F017E001201B9E4F5A0F50F1A
:01019200224A
:030000000200A655
:0C00A600787FE4F6D8FD75810F0200EDB4
:10019300D083D082F8E4937012740193700DA3A3FB
:1001A30093F8740193F5828883E47374029368600F
:0601B300EFA3A3A380DF0F
:1000B200020206E493A3F8E493A34003F68001F25C
:1000C20008DFF48029E493A3F85407240CC8C3334F
:1000D200C4540F4420C8834004F456800146F6DF1E
:1000E200E4800B01020408102040809001F6E47EB7
:1000F200019360BCA3FF543F30E509541FFEE49313
:10010200A360010ECF54C025E060A840B8E493A3D9
:10011200FAE493A3F8E493A3C8C582C8CAC583CA04
:10012200F0A3C8C582C8CAC583CADFE9DEE780BEBC
:0102050000F8
:00000001FF
