:10035700E4FDFCC3ED9FEE6480F8EC6480985015D3
:10036700E4FBFA0BBB00010AEB647C4A70F50DBD98
:0503770000010C80DE16
:01037C00225E
:1003BB0002090828020B07CF020D07BE020F0336F6
:10000300E5081470030200881470030200F21470F0
:100013000302015C240360030201C675110175121A
:1000230016751317751417AE09AF0A7C037DE81212
:1000330003028F15AE09AF0A7C007D641203027CB4
:10004300007D0A1203028D16AE09AF0A7C007D0AF9
:100053001203027C007D0A1203028D17AE09AF0A58
:100063007C007D0A1203028D18E4F51BF51C1201B6
:10007300C7051CE51C7002051BC394D0E51B940740
:1000830040EC0508227511027512167513177514C5
:1000930017AE0BAF0C7C037DE81203028F15AE0B7A
:1000A300AF0C7C007D641203027C007D0A12030204
:1000B3008D16AE0BAF0C7C007D0A1203027C007D13
:1000C3000A1203028D17AE0BAF0C7C007D0A1203DC
:1000D300028D18E4F51BF51C1201C7051CE51C7005
:1000E30002051BC394D0E51B940740EC0508227559
:1000F3001103751216751317751417AE0DAF0E7C19
:10010300037DE81203028F15AE0DAF0E7C007D64F4
:100113001203027C007D0A1203028D16AE0DAF0E90
:100123007C007D0A1203027C007D0A1203028D17F4
:10013300AE0DAF0E7C007D0A1203028D18E4F51B91
:10014300F51C1201C7051CE51C7002051BC394D0E6
:10015300E51B940740EC050822751104751216750A
:100163001317751417AE0FAF107C037DE81203024B
:100173008F15AE0FAF107C007D641203027C007DEF
:100183000A1203028D16AE0FAF107C007D0A120314
:10019300027C007D0A1203028D17AE0FAF107C00A4
:1001A3007D0A1203028D18E4F51BF51C1201C70525
:1001B3001CE51C7002051BC394D0E51B940740EC9F
:0301C300E4F50858
:0101C6002216
:10039D00E4F519F51A1201C7051AE51A70020519C7
:0E03AD00C394D0E519940740EC12000380FBC6
:10037D00C0F9A4B0999282F880908883C6A1868E28
:10038D0089C7C8C18CA3BFFF01020408102040809B
:0A03CB0008110808080808080808CF
:1001C700E51DB4080040030202759001D8F82828FD
:1001D700730201F00201FD02020A02021702022461
:1001E70002023102023E02025AE51190037D93F5A5
:1001F70090900395804CE51290037D93F5909003C2
:1002070096803FE51390037D93F590900397803296
:10021700E51490037D93F5909003988025E515905C
:10022700037D93F5909003998018E51690037D93CD
:10023700F59090039A800BE51790037D93F59090C6
:10024700039BE493F5A07F017E00120357E4F5A01A
:10025700051D22E51890037D93F59090039CE49388
:0E026700F5A07F017E00120357E4F5A0F51DFF
:010275002266
:0300000002027683
:0C027600787FE4F6D8FD75811D0202BD02
:10030200BC000BBE0029EF8DF084FFADF022E4CCDF
:10031200F875F008EF2FFFEE33FEEC33FCEE9DECA8
:10032200984005FCEE9DFE0FD5F0E9E4CEFD22EDEE
:10033200F8F5F0EE8420D21CFEADF075F008EF2F38
:10034200FFED33FD4007985006D5F0F222C398FD29
:050352000FD5F0EA22C6
:1002820002039DE493A3F8E493A34003F68001F2F2
:1002920008DFF48029E493A3F85407240CC8C3337D
:1002A200C4540F4420C8834004F456800146F6DF4C
:1002B200E4800B01020408102040809003BBE47E1E
:1002C200019360BCA3FF543F30E509541FFEE49341
:1002D200A360010ECF54C025E060A840B8E493A308
:1002E200FAE493A3F8E493A3C8C582C8CAC583CA33
:1002F200F0A3C8C582C8CAC583CADFE9DEE780BEEB
:0103D5000027
:00000001FF
