:10050900E4FDFCC3ED9FEC9E5015E4FBFA0BBB0028
:0F051900010AEB647C4A70F50DBD00010C80E413
:0105280022B0
:100571006572723A4C454453686F775374722829F7
:010581000079
:1003FE00E4FF4380F0C2A5D2A6D2A7E58054F0FE5A
:10040E00C2A7D2A7E580540FFDC4540F4206C2A75F
:10041E000FEFD394325004EE20E7DE7F017E000210
:02042E000509BE
:1004BA008F201203FEC2A5C2A68520807F057E007A
:1004CA00120509D2A7C2A7E520C454F0F5807F011E
:0A04DA007E00120509D2A7C2A72276
:07043000758300120112FFA9
:100437008F1F1203FED2A5C2A6851F807F017E00F3
:10044700120509D2A7C2A7E51FC454F0F5807F01A2
:0A0457007E00120509D2A7C2A722F9
:1004E4007F331204BA7F017E001205097F321204A1
:1004F400BA7F281204BA7F0C1204BA7F061204BA17
:050504007F010204BAB2
:10055D008F1FED7004E51F8004E51F24404480FFCC
:04056D001204BA2298
:0A02F4008F088D098B0A8A0B890C14
:1002FE00780E7C007D007BFF7A0579717E007F1180
:10030E001200D3E509600464017033E508C394005C
:10031E00402CE508D3940F5025AD09AF0812055DAA
:10032E00AB0AAA0BA90C1200F96046050CE50C707D
:10033E0002050B14F91200F9FF12043780E27F80D8
:10034E001204BAE4F50D7B007A00790E120548C34B
:10035E00E50D9FEE6480F87480985015740E250D8F
:10036E00F8E6FF1204377F647E00120509050D8042
:01037E00D5A9
:01037F00225B
:060461008B3D8A3E893F3D
:100467007F401204BAE4F540AB3DAA3EA93F854060
:10047700821204300540E540C3940840EB7F8512A3
:0704870004BAE4FF02043790
:0803C4008E358F368D378B3822
:1003CC00E4F53CE53875F008A42440253CFF120404
:1003DC00BAAB39AA3AA93B853C82120430053CE5FC
:1003EC003CC3940840DDAF36AD3712055DAF380223
:0203FC000437C4
:0E0243008F248E238D228C218B258A268927DD
:10025100EC33501C1201518F248E238D228C2105E9
:1002610027E5277002052614F9742D12013F05298F
:10027100E47B0AFAF9F8AF24AE23AD22AC211203D4
:1002810080EB2430FFAE280528742A2EF8A607AF8C
:1002910024AE23AD22AC21E47B0AFAF9F8120380E3
:1002A1008F248E238D228C21E4FFFEFDFCAB24AA3A
:1002B10023A922A821D312015F50B5E5282529F5EC
:1002C10029AF281528EFD39400401B742A2528F85C
:1002D100E6FFAB250527E527AA267002052614F9B6
:1002E100EF12013F80DBAB25AA26A927E412013FCB
:0202F100AF2933
:0102F30022E8
:1005290048656C6C6F204C434420313630320047AB
:0F0539007265672047652031393832383838000D
:10048E001204E47F0A7E001205097BFF7A057929A2
:10049E00E4FDFF1202F47BFF7A0579387D01E4FF5B
:0C04AE001202F47F0A7E0012050980FE95
:0300000002058274
:0C058200787FE4F6D8FD75814002048EFD
:10000300E709F608DFFA8046E709F208DFFA803EDF
:1000130088828C83E709F0A3DFFA8032E309F608CC
:10002300DFFA8078E309F208DFFA807088828C8334
:10003300E309F0A3DFFA806489828A83E0A3F608E8
:10004300DFFA805889828A83E0A3F208DFFA804CC2
:1000530080D280FA80C680D4806980F28033801099
:1000630080A680EA809A80A880DA80E280CA803302
:1000730089828A83ECFAE493A3C8C582C8CCC5837A
:10008300CCF0A3C8C582C8CCC583CCDFE9DEE7804A
:100093000D89828A83E493A3F608DFF9ECFAA9F0C9
:1000A300EDFB2289828A83ECFAE0A3C8C582C8CC1F
:1000B300C583CCF0A3C8C582C8CCC583CCDFEADE38
:1000C300E880DB89828A83E493A3F208DFF980CC9A
:1000D30088F0EF60010E4E60C388F0ED2402B40493
:1000E3000050B9F582EB2402B4040050AF2323453A
:0600F3008223900053730C
:1000F900BB010689828A83E0225002E722BBFE0205
:09010900E32289828A83E4932237
:10011200BB010CE58229F582E5833AF583E02250A2
:1001220006E92582F8E622BBFE06E92582F8E222EC
:0D013200E58229F582E5833AF583E4932206
:10013F00BB010689828A83F0225002F722BBFE019F
:02014F00F32299
:10038000C2D5E830E70FB2D5E4C39BFBE49AFAE4A8
:1003900099F9E498F8EC30E717B2D51203B61201D8
:1003A000B1E4C39BFBE49AFAE499F9E498F880037A
:1003B0001201B130D50DE4C39FFFE49EFEE49DFD24
:0403C000E49CFC229B
:0E015100C3E49FFFE49EFEE49DFDE49CFC22BF
:10015F00EB9FF5F0EA9E42F0E99D42F0EC6480C817
:06016F0064809845F022B7
:10054800E4FFFE1200F9600C0FEF70010E09E9706C
:05055800F20A80EF2211
:1001750075F008758200EF2FFFEE33FECD33CDCC41
:1001850033CCC58233C5829BED9AEC99E5829840C4
:100195000CF582EE9BFEED9AFDEC99FC0FD5F0D6A1
:1001A500E4CEFBE4CDFAE4CCF9A88222B800C1B9CB
:1001B5000059BA002DEC8BF084CFCECDFCE5F0CB09
:1001C500F97818EF2FFFEE33FEED33FDEC33FCEB42
:1001D50033FB10D703994004EB99FB0FD8E5E4F9FD
:1001E500FA227818EF2FFFEE33FEED33FDEC33FCEA
:1001F500C933C910D7059BE99A4007EC9BFCE99ADE
:10020500F90FD8E0E4C9FAE4CCFB2275F010EF2F22
:10021500FFEE33FEED33FDCC33CCC833C810D70722
:100225009BEC9AE899400AED9BFDEC9AFCE899F85D
:0E0235000FD5F0DAE4CDFBE4CCFAE4C8F922F0
:00000001FF
