:0D031F000809006400C8012C270F01080028
:08033A001201D11200B380F89A
:1001D100751114E50804F512751316751416E50862
:1001E10025E02409F8E6FA08E6FB7C037DE8FFAE8A
:1001F1000212023A8F157C007D64AF03AE02120237
:100201003A7C007D0A12023A8D16E50825E02409A0
:10021100F8E6FA08E6FB7C007D0AFFAE0212023A1C
:100221007C007D0A12023A8D177C007D0AAF03AE75
:090231000212023A8D18020003CA
:1000B30012028FE519B4010E0508E5086404600314
:1000C300020144F50822E5196402600CE519640392
:1000D3006006E51964047069E51924FD602A14605B
:1000E300552402705CE50825E02409F80806E618A3
:1000F300700106E50825E02409F8E6FE08E6D39436
:100103000FEE9427403B802EE50825E02409F808EC
:10011300E61618700116E50825E02409F8E6FE083E
:10012300E6D3940FEE94274018E50825E02409F858
:10013300762708760F22E50825E02409F8E4F60877
:02014300F622A2
:03032C00011900B4
:10028F00E4F519D2B0D2B1D2B2D2B330B00930B195
:10029F000630B20320B3377F0F7E001202FF30B05B
:1002AF000930B10630B20320B31820B0037519011D
:1002BF0020B10375190220B20375190320B303751A
:0F02CF00190430B0FD30B1FA30B2F730B3F42279
:1002DE003F065B4F666D7D077F6F777C395E797168
:1002EE007638373E735C400000FEFDFBF7EFDFBF54
:0102FE007F80
:0A032F00081108080808080808086B
:10000300E51AB4080040030200B2900014F828284F
:100013007302002C02003902004602005302006002
:1000230002006D02007A020096E5119002DE93F55C
:10003300809002F7804CE5129002DE93F5809002E7
:10004300F8803FE5139002DE93F5809002F9803249
:10005300E5149002DE93F5809002FA8025E5159071
:1000630002DE93F5809002FB8018E5169002DE9382
:10007300F5809002FC800BE5179002DE93F58090EB
:1000830002FDE493F5A07F017E001202FF75A0FF3D
:10009300051A22E5189002DE93F5809002FEE493A0
:0F00A300F5A07F017E001202FF75A0FFE4F51AA1
:0100B200222B
:1002FF00E4FDFCC3ED9FEC9E5015E4FBFA0BBB0035
:0F030F00010AEB647C4A70F50DBD00010C80E41F
:01031E0022BC
:03000000020145B5
:0C014500787FE4F6D8FD75811A02018C69
:10023A00BC000BBE0029EF8DF084FFADF022E4CCA8
:10024A00F875F008EF2FFFEE33FEEC33FCEE9DEC71
:10025A00984005FCEE9DFE0FD5F0E9E4CEFD22EDB7
:10026A00F8F5F0EE8420D21CFEADF075F008EF2F01
:10027A00FFED33FD4007985006D5F0F222C398FDF2
:05028A000FD5F0EA228F
:1001510002033AE493A3F8E493A34003F68001F287
:1001610008DFF48029E493A3F85407240CC8C333AF
:10017100C4540F4420C8834004F456800146F6DF7E
:10018100E4800B010204081020408090031FE47EEC
:10019100019360BCA3FF543F30E509541FFEE49373
:1001A100A360010ECF54C025E060A840B8E493A33A
:1001B100FAE493A3F8E493A3C8C582C8CAC583CA65
:1001C100F0A3C8C582C8CAC583CADFE9DEE780BE1D
:0103390000C3
:00000001FF
