:100368003F065B4F666D7D077F6F777C395E7971DD
:0F0378007638373E735C400000FBF7EFDFBF7F46
:0803AC0006080808080808080B
:1001BD00E51214602014602D14603A146047146029
:1001CD00592405706A75A0FFE50890036893F580C2
:1001DD00900381803E75A0FFE50990036893F5803B
:1001ED00900382802E75A0FFE50A90036893F58039
:1001FD00900383801E75A0FFE50B90036893F58037
:10020D00900384800E75A0FFE50C90036893F58034
:10021D00900385E493F5A005122275A0FFE50D90DE
:0F022D00036893F580900386E493F5A0E4F5123F
:01023C00229F
:0403B400020E000035
:100387005389F0438901758A18758CFCC28DD2A9EF
:03039700D28C22E3
:03000B0002023DB1
:10023D00C0E0C0F0C083C082C0D075D000C000C087
:10024D0001C002C003C004C005C006C007C28C05B2
:10025D0011E51170020510C394E8E51094034020D8
:10026D00C28EAF8DEFFEAD8B7C00E42DF50FEC3E15
:10027D00F50E751000751100758B00758D00D28E01
:10028D001201BD758A18758CFCD28CD007D006D0A2
:10029D0005D004D003D002D001D000D0D0D082D070
:0602AD0083D0F0D0E03226
:10039A0053890F438950E4F58BF58DC28FD2ABD2C6
:0203AA008E22A1
:1002B300AE0EAF0FE4FCFD7BA07A867901F8120342
:1002C300248F08AE0EAF0F7C277D1012000E7C002A
:1002D3007D0A12000E8D09AE0EAF0F7C037DE8126E
:1002E300000E7C007D0A12000E8D0AAE0EAF0F7C4D
:1002F300007D6412000E7C007D0A12000E8D0BAE91
:100303000EAF0F7C007D0A12000E7C007D0A1200E6
:100313000E8D0CAE0EAF0F7C007D0A12000E8D0DFC
:0103230022B7
:0D03B900D2AF12038712039A1202B380FB29
:03000000020131C9
:0C013100787FE4F6D8FD75811202017899
:10000E00BC000BBE0029EF8DF084FFADF022E4CCD6
:10001E00F875F008EF2FFFEE33FEEC33FCEE9DEC9F
:10002E00984005FCEE9DFE0FD5F0E9E4CEFD22EDE5
:10003E00F8F5F0EE8420D21CFEADF075F008EF2F2F
:10004E00FFED33FD4007985006D5F0F222C398FD20
:05005E000FD5F0EA22BD
:10032400C2D5E830E70FB2D5E4C39BFBE49AFAE404
:1003340099F9E498F8EC30E717B2D512035A120091
:100344009FE4C39BFBE49AFAE499F9E498F88003E8
:1003540012009F30D50DE4C39FFFE49EFEE49DFD93
:04036400E49CFC22F7
:10013D000203B9E493A3F8E493A34003F68001F21C
:10014D0008DFF48029E493A3F85407240CC8C333C3
:10015D00C4540F4420C8834004F456800146F6DF92
:10016D00E4800B01020408102040809003ACE47E73
:10017D00019360BCA3FF543F30E509541FFEE49387
:10018D00A360010ECF54C025E060A840B8E493A34E
:10019D00FAE493A3F8E493A3C8C582C8CAC583CA79
:1001AD00F0A3C8C582C8CAC583CADFE9DEE780BE31
:0103B8000044
:1000630075F008758200EF2FFFEE33FECD33CDCC54
:1000730033CCC58233C5829BED9AEC99E5829840D7
:100083000CF582EE9BFEED9AFDEC99FC0FD5F0D6B4
:10009300E4CEFBE4CDFAE4CCF9A88222B800C1B9DE
:1000A3000059BA002DEC8BF084CFCECDFCE5F0CB1C
:1000B300F97818EF2FFFEE33FEED33FDEC33FCEB55
:1000C30033FB10D703994004EB99FB0FD8E5E4F910
:1000D300FA227818EF2FFFEE33FEED33FDEC33FCFD
:1000E300C933C910D7059BE99A4007EC9BFCE99AF1
:1000F300F90FD8E0E4C9FAE4CCFB2275F010EF2F36
:10010300FFEE33FEED33FDCC33CCC833C810D70735
:100113009BEC9AE899400AED9BFDEC9AFCE899F870
:0E0123000FD5F0DAE4CDFBE4CCFAE4C8F92203
:00000001FF
