:100CE900E4FDFCC3ED9FEC9E5015E4FBFA0BBB0041
:0F0CF900010AEB647C4A70F50DBD00010C80E42C
:010D080022C8
:100CC800E4FF7580FFC2A5D2A6D2A7AE80C2A70F47
:100CD800EFD394325004EE20E7EF7F017E00020C40
:010CE800E922
:100D31008F51120CC8C2A5C2A6855180D2A7C2A7E5
:010D4100228F
:100D42008F50120CC8D2A5C2A6855080D2A7C2A7C6
:010D5200227E
:100D09007F38120D317F0C120D317F06120D317FA4
:040D190001020D3195
:100D1D008F50ED7004E5508004E55024404480FF71
:040D2D00120D312250
:100C54008B4D8A4E894F120D1DAB4DAA4EA94F12D2
:100C6400048D6013054FE54F7002054E14F912040C
:080C74008DFF120D4280E22207
:100CA3007F40120D31E4F510E51090000093FF1220
:100CB3000D420510E510C3940840ED7F85120D31F8
:050CC300E4FF020D42F8
:080C13008E088F098D0A8B0B7E
:100C1B00E4F50FE50B75F008A42440250FFF120D2A
:100C2B0031AB0CAA0DA90E850F827583001204A699
:100C3B00FF120D42050FE50FC3940840D6AF09AD67
:090C4B000A120D1DAF0B020D424F
:0E0A7C008F508E4F8D4E8C4D8B518A52895368
:100A8A00EC33501C1204E58F508E4F8D4E8C4D0561
:100A9A0053E5537002055214F9742D1204D3055507
:100AAA00E47B0AFAF9F8AF50AE4FAD4EAC4D120BDB
:100ABA00CFEB2430FFAE54055474562EF8A607AF78
:100ACA0050AE4FAD4EAC4DE47B0AFAF9F8120BCF9B
:100ADA008F508E4F8D4E8C4DE4FFFEFDFCAB50AA1D
:100AEA004FA94EA84DD31204F350B5E5542555F538
:100AFA0055AF541554EFD39400401B74562554F83F
:100B0A00E6FFAB510553E553AA527002055214F998
:100B1A00EF1204D380DBAB51AA52A953E41204D3D7
:020B2A00AF55C5
:010B2C0022A6
:0C0D530025302E31660025302E3566005C
:100B2D007525C77524CF7523FF7522FF7548D075C0
:100B3D00470F754649754540E4F54CF54B754A48E8
:100B4D00754941120D097F147E00120CE9AF25AED7
:100B5D0024AD23AC227B007A007926120A7C7B001F
:100B6D007A007926E4FDFF120C547550FF75510D76
:100B7D00755253854C56854B55854A548549537B43
:100B8D00007A00793B1206697B007A00793B7D0182
:100B9D00E4FF120C547550FF75510D75525985486F
:100BAD00568547558546548545537B007A007931E6
:100BBD001206697B007A0079317D017F07120C5492
:020BCD0080FEA8
:10060D00E5642450F8E6056422784D3007027850F1
:10061D00E475F00112050902048D2000EB7F2ED246
:10062D00008018EF540F2490D43440D4FF30040BC5
:10063D00EF24BFB41A0050032461FFE56560021575
:10064D00650568E5687002056730070D784DE4753E
:10065D00F001120509EF0204D3020C7C7403D207DA
:10066D008003E4C207F5648B4D8A4E894FE4F5652E
:10067D00F567F568E56560077F2012064880F5751A
:10068D0066FFC201C200C202C203C205C206C20891
:10069D00120616FF700D3007057F00120659AF6860
:1006AD00AE6722B4255FC2D5C204120616FF24D050
:1006BD00B40A00501A75F00A786530D50508B6FFF2
:1006CD000106C6A426F620D5047002D20380D924D3
:1006DD00CFB41A00EF5004C2E5D204020946D2018C
:1006ED0080C6D20080C0D20280BCD2D580BAD205DD
:1006FD0080B47F201206482002077401B5650040C2
:10070D00F112060DFF120648020681D208D20680AC
:10071D009512060DFB12060DFA12060DF94A4B70D5
:10072D0006793D7A0A7BFF20022EE565602A7E0060
:10073D008E827583001204A660060EEE656670F05B
:10074D00C2D5EBC0E0EAC0E0E9C0E0EE1209A6D0E8
:10075D00E0F9D0E0FAD0E0FB12048DFF60AAEBC007
:10076D00E0EAC0E0E9C0E0120648D0E02401F9D08B
:10077D00E03400FAD0E0FBE5660460DCD566D98094
:10078D0087D20280A212098960F7E5667001041212
:10079D000003A966600DE566600914F566120A305E
:1007AD00EF60F3EA30E702F404C3995077EAF425D9
:1007BD00660430E701E404F566800D12098960C115
:1007CD00EA05662566120003EA7863F630E701E470
:1007DD00256604D56604200501141209A6E4C0E0BF
:1007ED00120A307863E6601320E70714F61206301C
:1007FD00802204F6D0E014C0E07F00120630E566DA
:10080D0060071206271566800B300503120627D0E8
:10081D00E0020681D0E00480C512098960A0E5667A
:10082D00041200037863EAF6E56620050260010410
:05083D0024041209A6CD
:1008420074FF04C0E0120A30120630E56620050289
:100852006003120627D0E0B566E87F4512063A78B3
:1008620063E67F2B30E7047F2DF404C0E0120648D4
:10087200D0E075F00A84C0F0120631D0E0120631E1
:10088200020681791080027908C206C2088008D265
:10089200D5790A8004790AC2D5E566047002F56644
:1008A200E4FAFDFEFF12060DFC7B0820011312067E
:1008B2000DFD7B1030000A12060DFE12060DFF7BA5
:1008C20020EC3382D592D55013C3E43000069FFF4B
:1008D200E49EFEE42001039DFDE49CFCE4CBF8C20F
:1008E20001EC700CCFCECDCCE824F8F870F3801771
:1008F200C3EF33FFEE33FEED33FDEC33FCEB33FBA2
:10090200994002FB0FD8E9EB300105F8D0E0C4486A
:10091200B201C0E00AEC4D4E4F78207B0070C2EA73
:10092200B5660040BCC0E01209A8D0F0D0E02001BA
:1009320004C4C0E0C4B201C0F0120631D0F0D5F058
:10094200EB020681120519071E5308855806EF4C63
:1009520006EB4208894F089144089149070443086D
:10096200975507C8460826450792470A5D5006F381
:100972002D06F72E071A2B06FB230718200A462AF4
:1009820006B34800000712E566B4FF037566061257
:10099200060DFC12060DFD12060DFE12060DFF7865
:1009A2005C020032790AA2D5200314300509B9107D
:1009B200020404B9080104A2D52006025001042051
:1009C20002689202B565005034C0E07F20300319FE
:1009D2007F30A20272067205500F1209FFC202C2D4
:1009E20006C205C2087F30800F300503E9C0E0125D
:1009F2000648300503D0E0F9D0E0B565CC300517E4
:100A02007F30B9100C1206487F583004077F788077
:100A120003B908031206483002057F2D0206487FFB
:100A2200202008F87F2B2006F322920280CF7F003D
:100A3200B407005005245CF8E6FF22286E756C6C42
:100A42002900D20112060D3001F8C201786530D5B5
:100A52000108F60206B32D5043495812060D24032D
:100A6200B405004001E4900A5893120639743A1210
:0A0A72000639D203756504020885F9
:10000300F920E72824F950037907E4F42402FB18C4
:10001300DBFDE624FB5014E9600DE4F618E604F674
:0F002300B40A08E4F6D9F57401F60A22C2D52210
:10003200ED33EC3392D5FA602AB4FF33EDC2E77B9D
:10004200FF60067A007957E4227A00796020D504AD
:100052007A00795B224E614E002B494E46002D49B3
:100062004E4600E47A08F608DAFC7B00740722E8C0
:10007200C0E0ECC0E0EDC0E0EEC0E0EFC0E0EA7549
:10008200F010A4CAABF075F04DA42BFBE435F0FCE4
:10009200EA2410FAEB34C5FBEC34D9FCEDC2E7FFDD
:1000A20075F056A4F42411C5F0F434C58FF0A42AD7
:1000B200E5F03BE43CF620E714120403D0E0FFD065
:1000C200E0FED0E0FDD0E0FC1203368014F404120E
:1000D2000403D0E0FFD0E0FED0E0FDD0E0FC12024D
:1000E2002DD0E0F8E6FAEDD2E7CD33EC332482FBF3
:1000F200E4C3CF33CFCE33CECD33CD33DBF37B0767
:1001020075F00A846004F6081B0AE5F0F6088FF021
:10011200740AA4FFACF08EF0740AA42CFEACF0506A
:10012200010C8DF0740AA42CFDE435F0F608DBDE38
:030132007407222D
:10013500020478E86480F8E933E83360110460F07C
:10014500ED33EC337009E8FCE9FDEAFEEBFF220430
:1001550060DED3EB9FEA9EE99DE8C2E78CF0C2F72B
:1001650095F0400CE8CCF8E9CDF9EACEFAEBCFFBF7
:1001750012044385D0F05804700320D5B3E8047009
:10018500075002B2D502048292D5EC0460F7E4CCA4
:10019500C0E0C398F8603B94186008400DD0E0FBC0
:1001A50002045AE4FBFAC9FC8028E830E406E4C9F5
:1001B500FBE4CAFCE830E305E4C9CACBFCE8540714
:1001C5006010F8C3E913F9EA13FAEB13FBEC13FC1F
:1001D500D8F130F52FC3E49CFCEF9BFFEE9AFEEDC2
:1001E50099FDD0E0FBEF4E4D4C701222DB0302046B
:1001F5007FEC2CFCEF33FFEE33FEED33FDED30E706
:10020500EB02045AEF2BFFEE3AFEED39FDD0E0FB91
:1002150050130BBB0003020482ED13FDEE13FEEF3A
:0802250013FFEC13FC02045A64
:10022D00EC4D6011E8497017ED33EC3304600DE4CB
:10023D00FCFFFEFD22E933E8330470F80204781266
:10024D00044358046009E4CC248150062850090267
:10025D00048228400302047FC0E0EB4A7044B98059
:10026D0006D0E0FB02046EEF4E701CBD8008EBFF64
:10027D00EAFEE9FD80EBE98DF0A4FEE5F002031640
:10028D00E9CDF9EAFEEBFFEF89F0A4FCE5F0CE89AC
:10029D00F0A42EFFE435F0CD89F0A42DFEE435F069
:1002AD008067EF4E7005BD80D780C3EF8BF0A4AC97
:1002BD00F0EE8BF0A42CFCE435F0F8EF8AF0A42CD2
:1002CD00E5F038FCE433CB8DF0A42CFCE5F03BF8E5
:1002DD00EE8AF0A42CFCE5F038F8E433CF89F0A4D5
:1002ED002CFCE5F038CF3400CE89F0A42FFFE5F0DB
:1002FD003EFEE433C98DF0A42EFEE5F039CD8AF033
:10030D00A42FFFE5F03EFEE43DFD33D0E0FB5007AA
:10031D000BBB000F020482EC2CFCEF33FFEE33FE1F
:06032D00ED33FD02045A4D
:10033300020482EC5D046005E8590470030204784A
:10034300120443580460F6EC4860F2EC7004FDFEBE
:10035300FF22C860DB2481C85009C398600250069D
:1003630002047F9850CAF582E9294B4A7005AB8293
:1003730002046E75F0007C1A7880C3EF9BEE9AED51
:1003830099400DC3EF9BFFEE9AFEED99FDE842F015
:10039300DC23ACF0D0E0FFD0E0FED0E0FDAB822068
:1003A300E7101BEB60BAEC2CFCEF33FFEE33FEEDF2
:1003B30033FD02045AE803F830E705C0F075F00096
:1003C300EF2FFFEE33FEED33FD40B830E7C280AAD6
:1003D3003F8000004120000042C80000447A000032
:1003E300461C400047C35000497424004B189680B4
:1003F3004CBEBC205A0E1BCA6753C21C749DC5AEAB
:10040300FB60065407601C2323120431EB5438604D
:100413000912041D12042C12022DECF8EDF9EEFA68
:10042300EFCB22EB12042C80F1543803241C9003ED
:10043300D3FE93FC0EEE93FD0EEE930ECE93FF22AE
:10044300E9D2E7C933E833F892D5EDD2E7CD33ECFF
:0704530033FC5002B2D52278
:10045A00EC30E7100FBF000C0EBE00080DBD000403
:10046A000BEB6014A2D5EB13FCED92E7FD2274FFAF
:10047A00FCFDFEFF22E480F8A2D574FF13FC7D8008
:03048A00E480EF1C
:03000000020D5F8F
:0C0D5F00787FE4F6D8FD758168020B2D4A
:10048D00BB010689828A83E0225002E722BBFE026D
:09049D00E32289828A83E49322A0
:1004A600BB010CE58229F582E5833AF583E022500B
:1004B60006E92582F8E622BBFE06E92582F8E22255
:0D04C600E58229F582E5833AF583E493226F
:1004D300BB010689828A83F0225002F722BBFE0108
:0204E300F32202
:100BCF00C2D5E830E70FB2D5E4C39BFBE49AFAE451
:100BDF0099F9E498F8EC30E717B2D5120C05120525
:100BEF007BE4C39BFBE49AFAE499F9E498F8800359
:100BFF0012057B30D50DE4C39FFFE49EFEE49DFDFF
:040C0F00E49CFC2243
:0E04E500C3E49FFFE49EFEE49DFDE49CFC2228
:1004F300EB9FF5F0EA9E42F0E99D42F0EC6480C880
:0605030064809845F0221F
:10050900FAE6FB0808E6F925F0F618E6CA3AF622F3
:10051900D083D082F8E4937012740193700DA3A371
:1005290093F8740193F5828883E473740293686085
:06053900EFA3A3A380DF85
:100C7C00EFB40A07740D120C87740A309811A899F6
:100C8C00B8130CC2983098FDA899C298B811F630D8
:070C9C0099FDC299F59922B0
:10053F0075F008758200EF2FFFEE33FECD33CDCC73
:10054F0033CCC58233C5829BED9AEC99E5829840F6
:10055F000CF582EE9BFEED9AFDEC99FC0FD5F0D6D3
:10056F00E4CEFBE4CDFAE4CCF9A88222B800C1B9FD
:10057F000059BA002DEC8BF084CFCECDFCE5F0CB3B
:10058F00F97818EF2FFFEE33FEED33FDEC33FCEB74
:10059F0033FB10D703994004EB99FB0FD8E5E4F92F
:1005AF00FA227818EF2FFFEE33FEED33FDEC33FC1C
:1005BF00C933C910D7059BE99A4007EC9BFCE99A10
:1005CF00F90FD8E0E4C9FAE4CCFB2275F010EF2F55
:1005DF00FFEE33FEED33FDCC33CCC833C810D70755
:1005EF009BEC9AE899400AED9BFDEC9AFCE899F890
:0E05FF000FD5F0DAE4CDFBE4CCFAE4C8F92223
:00000001FF
