:10067400E4FDFCC3ED9FEC9E5015E4FBFA0BBB00BC
:0F068400010AEB647C4A70F50DBD00010C80E4A7
:010693002244
:1005C5007761697420666F722073657269616C204A
:1005D500436F6D6D756E69636174696F6E205465E7
:1005E50073742053746172742E200D0A00706C654B
:1005F5006173652053656E64206120737472696E42
:0E06050067206F6620646174613A0D0A200060
:10000E005389F0438901758A66758CFCC28DD2A91D
:03001E00D28C225F
:03000B00020613D7
:10061300C0E0C0D0C28CC3E5339526E532952550A2
:100623000C0533E53370020532C2908002D290E5A7
:10063300244523600AE524152470021523B2B775F7
:0C0643008A66758CFCD28CD0D0D0E032DE
:1006940012000E1206E8D2AF7BFF7A0579C512006C
:0C06A400887BFF7A0579F212008880FE46
:1006CC000A280000000000000000000001340001B6
:0B06DC0027000136000135000122005C
:1006E80053877F75985053890F438920758BFD7503
:0906F8008DFDC2ABD2ACD28E2202
:080003008F993099FDC299228A
:10064F008B088A09890AAB08AA09A90A12048960CA
:10065F0013050AE50A7002050914F9120489FF123D
:05066F00000380E222FF
:06070100AE071200032206
:0300230002038253
:10038200C0E0C0F0C083C082C0D075D000C000C041
:1003920001C002C003C004C005C006C00720980304
:1003A200020469C298E53614601D14603114604875
:1003B20024036003020469859928E528B45506756B
:1003C20036010204698011859929E529B4AA0975C3
:1003D2003602753402020469753600020469742813
:1003E2002534F8A6990534E534D3940440057536CE
:1003F200038074753602806F74282534F8A69974C8
:10040200282534F8E6640D7046E52A24FE602304AC
:10041200703D752500852B26E526752600F525E518
:100422002C2526F526E43525F52575320075330091
:10043200801D752500852B26E526752600F525E508
:100442002C2526F526E43525F525F5238526247564
:1004520036007534007B007A00792812064F7B0043
:100462007A0079281206B0309902C299D007D006D4
:10047200D005D004D003D002D001D000D0D0D08299
:07048200D083D0F0D0E0327E
:0606B0008B088A09890A8B
:1006B600E4FFAB08AA09A90A8F82758300E4120435
:0506C600A20FBF0AEDC8
:0106CB00220C
:03000000020539BD
:0C053900787FE4F6D8FD7581360205805D
:10048900BB010689828A83E0225002E722BBFE0271
:09049900E32289828A83E49322A4
:1004A200F8BB010DE58229F582E5833AF583E8F090
:1004B200225006E92582C8F622BBFE05E92582C83C
:0204C200F22224
:10002600E51A240EF8E6051A22780B300702780E38
:10003600E475F0011205030204892000EB7F2ED23D
:10004600008018EF540F2490D43440D4FF30040BB2
:10005600EF24BFB41A0050032461FFE51B600215AC
:100066001B051EE51E7002051D30070D780BE47595
:10007600F001120503EF0204F10207017403D2072F
:100086008003E4C207F51A8B0B8A0C890DE4F51B75
:10009600F51DF51EE51B60077F2012006180F575D2
:1000A6001CFFC201C200C202C203C205C206C208C8
:1000B60012002FFF700D3007057F00120072AF1E71
:1000C600AE1D22B4255FC2D5C20412002FFF24D074
:1000D600B40A00501A75F00A781B30D50508B6FF29
:1000E6000106C6A426F620D5047002D20380D924C0
:1000F600CFB41A00EF5004C2E5D204020272D20154
:1001060080C6D20080C0D20280BCD2D580BAD205C9
:1001160080B47F201200612002077401B51B0040E5
:10012600F1120026FF12006102009AD208D2068060
:1001360095120026FB120026FA120026F94A4B7089
:100146000679437A037BFF20022EE51B602A7E0098
:100156008E827583001204C460060EEE651C70F074
:10016600C2D5EBC0E0EAC0E0E9C0E0EE1202B9D0C9
:10017600E0F9D0E0FAD0E0FB120489FF60AAEBC0F8
:10018600E0EAC0E0E9C0E0120061D0E02401F9D065
:10019600E03400FAD0E0FBE51C0460DCD51CD98015
:1001A600877BFF7A0279B5D202809C79108002792A
:1001B60008C206C2088008D2D5790A8004790AC224
:1001C600D5E51C047002F51CE4FAFDFEFF120026BC
:1001D600FC7B08200113120026FD7B1030000A125A
:1001E6000026FE120026FF7B20EC3382D592D550E6
:1001F60013C3E43000069FFFE49EFEE42001039D46
:10020600FDE49CFCE4CBF8C201EC700CCFCECDCC67
:10021600E824F8F870F38017C3EF33FFEE33FEEDF2
:1002260033FDEC33FCEB33FB994002FB0FD8E9EBD3
:10023600300105F8D0E0C448B201C0E00AEC4D4EEA
:100246004F78207B0070C2EAB51C0040BCC0E012AB
:1002560002BBD0F0D0E0200104C4C0E0C4B201C0AB
:10026600F012004AD0F0D5F0EB02009A1205130105
:10027600375301B15801084C01044201B54F01BD85
:0F0286004401BD49011D4301C35501A74601A70E
:100295004501A747036350010C2D01102E01332B97
:1002A500011423013120034C2A00CC480000012B06
:1002B5003F3F3F00790AA2D5200314300509B91044
:1002C500020404B9080104A2D52006025001042045
:1002D50002689202B51B005034C0E07F203003193C
:1002E5007F30A20272067205500F120312C202C2BB
:1002F50006C205C2087F30800F300503E9C0E01251
:100305000061300503D0E0F9D0E0B51BCC3005170E
:100315007F30B9100C1200617F583004077F788058
:1003250003B908031200613002057F2D0200617FC9
:10033500202008F87F2B2006F322920280CF286E1A
:10034500756C6C2900D2011200263001F8C20178C3
:100355001B30D50108F60200CC2D50434958120038
:10036500262403B405004001E490035E9312005275
:0D037500743A120052D203751B040201B14C
:10054500020694E493A3F8E493A34003F68001F232
:1005550008DFF48029E493A3F85407240CC8C333B7
:10056500C4540F4420C8834004F456800146F6DF86
:10057500E4800B01020408102040809006CCE47E44
:10058500019360BCA3FF543F30E509541FFEE4937B
:10059500A360010ECF54C025E060A840B8E493A342
:1005A500FAE493A3F8E493A3C8C582C8CAC583CA6D
:1005B500F0A3C8C582C8CAC583CADFE9DEE780BE25
:0106E7000012
:1004C400BB010CE58229F582E5833AF583E02250ED
:1004D40006E92582F8E622BBFE06E92582F8E22237
:0D04E400E58229F582E5833AF583E4932251
:1004F100BB010689828A83F0225002F722BBFE01EA
:02050100F322E3
:10050300FAE6FB0808E6F925F0F618E6CA3AF622F9
:10051300D083D082F8E4937012740193700DA3A377
:1005230093F8740193F5828883E47374029368608B
:06053300EFA3A3A380DF8B
:00000001FF
