:07015000C101C1000108FE1E
:1001310012008FE50924FE600D14600D14600D247A
:0F01410003700BD20122C20122C20022D200227F
:1000DE0030012985089030000FAF087801EF0880B5
:1000EE000103D8FDF508800DAF087801EF088001F7
:1000FE0023D8FDF5087FF47E01020111200103755E
:03010E0090FF223D
:08015B001201311200DE80F8F0
:030157000109009B
:10008F00E4F509D2B0D2B1D2B2D2B330B00930B1A7
:10009F000630B20320B3377F0F7E0012011130B04C
:1000AF000930B10630B20320B31820B0037509012F
:1000BF0020B10375090220B20375090320B303753C
:0F00CF00090430B0FD30B1FA30B2F730B3F4228B
:10011100E4FDFCC3ED9FEC9E5015E4FBFA0BBB0024
:0F012100010AEB647C4A70F50DBD00010C80E40F
:0101300022AC
:03000000020003F8
:0C000300787FE4F6D8FD75812002004AE9
:10000F0002015BE493A3F8E493A34003F68001F2AB
:10001F0008DFF48029E493A3F85407240CC8C333F2
:10002F00C4540F4420C8834004F456800146F6DFC1
:10003F00E4800B0102040810204080900150E47E00
:10004F00019360BCA3FF543F30E509541FFEE493B6
:10005F00A360010ECF54C025E060A840B8E493A37D
:10006F00FAE493A3F8E493A3C8C582C8CAC583CAA8
:10007F00F0A3C8C582C8CAC583CADFE9DEE780BE60
:01015A0000A4
:00000001FF
