:10093D00E4FDFCC3ED9FEC9E5015E4FBFA0BBB00F0
:0F094D00010AEB647C4A70F50DBD00010C80E4DB
:01095C002278
:1009DD006572723A4C454453686F77537472282987
:0109ED000009
:1008FB00E4FF7580FFC2A6D2A5D2A7AE80C2A70F18
:10090B00EFD394325004EE20E7EF7F017E00020913
:01091B003D9E
:1009CC008F411208FBC2A6C2A5854180D2A7C2A73F
:0109DC0022F8
:07097700758300120112FF5D
:10097E008F401208FBD2A6C2A5854080D2A7C2A77F
:01098E002246
:1009A4007F381209CC7F0C1209CC7F061209CC7F48
:0409B400010209CC67
:1009B8008F40ED7004E5408004E54024404480FF0A
:0409C8001209CC2222
:0A03B7008F298D2A8B2B8A2C892DAB
:1003C100782F7C007D007BFF7A0979DD7E007F112B
:1003D1001200D3E52A600464017033E529C3940057
:1003E100402CE529D3940F5025AD2AAF291209B825
:1003F100AB2BAA2CA92D1200F96046052DE52D7015
:1004010002052C14F91200F9FF12097E80E27F80A7
:100411001209CCE4F52E7B007A00792F12098FC3E3
:10042100E52E9FEE6480F87480985015742F252E68
:10043100F8E6FF12097E7F647E0012093D052E80D9
:01044100D5E5
:010442002297
:060885008B5E8A5F8960B2
:10088B007F401209CCE4F561AB5EAA5FA96085617C
:10089B00821209770561E561C3940840EB7F8512ED
:0708AB0009CCE4FF02097E05
:080815008E568F578D588B5948
:10081D00E4F55DE55975F008A42440255DFF120946
:10082D00CCAB5AAA5BA95C855D82120977055DE5A3
:10083D005DC3940840DDAF57AD581209B8AF5902EA
:02084D00097E22
:0E0306008F458E448D438C428B468A47894832
:10031400EC33501C1201BF8F458E448D438C420533
:1003240048E5487002054714F9742D12013F054A47
:10033400E47B0AFAF9F8AF45AE44AD43AC42120788
:10034400D1EB2430FFAE490549744B2EF8A607AF14
:1003540045AE44AD43AC42E47B0AFAF9F81207D146
:100364008F458E448D438C42E4FFFEFDFCAB45AAD1
:1003740044A943A842D31201CD50B5E549254AF515
:100384004AAF491549EFD39400401B744B2549F8F3
:10039400E6FFAB460548E548AA477002054714F94D
:1003A400EF12013F80DBAB46AA47A948E412013FA4
:0203B400AF4A4E
:0103B6002224
:1005570054686520444153206F662054454D500030
:1005670076312E30004348303A004348313A004351
:1005770048323A004348333A004348343A00434844
:10058700353A004348363A004348373A004348383B
:100597003A004348393A004348413A004348423A0F
:1005A700004348433A004348443A004348453A0029
:1005B7004348463A00414C41524D204D454E550067
:1008B200202009007D007E007F008000DF00E00034
:1008C200E100E2014E014F0150015101A501A701D2
:0308D200A801A9D1
:10091C001209A47F0A7E0012093D12095D7FD07E68
:10092C000712093D7F011209CC12084F1208D98019
:01093C00F8C2
:1008D900E5081460101460101460101460102404EA
:1008E900700F0207140205C70206360206A512098F
:0208F900EE22ED
:10084F00120782E56224FE601314601D14601E24DB
:10085F000370220508E508B4041B800D1508E50890
:10086F00D39404401075080322E4F5082275080498
:06087F007F011209CC22EA
:10095D007BFF7A057957E4FD7F011203B77BFF7AA0
:0A096D000579677D017F060203B7DC
:100714007BFF7A05796CE4FDFF1203B77B007A0056
:100724007909E4F52EFD7F041204D37BFF7A057961
:1007340071E4FD7F081203B77B007A007909752EF6
:10074400011204CF7BFF7A0579767D01E4FF120361
:10075400B77B007A007909752E027D017F041204AB
:10076400D37BFF7A05797B7D017F081203B77B0079
:0E0774007A007909752E037D017F0C0204D3F3
:0404CF00E4FD7F0CBD
:1004D3008B2B8A2C892D1209B8AB2BAA2CA92D752D
:1004E300F002E52EA4F58285F083120187FFAEF0BA
:1004F3007C007D64120151EF2430FF12097EAB2B87
:10050300AA2CA92D75F002E52EA4F58285F083129D
:100513000187FFAEF07C007D0A1201517C007D0A49
:10052300120151ED2430FF12097E7F2E12097EAB9A
:100533002BAA2CA92D75F002E52EA4F58285F08354
:10054300120187FFAEF07C007D0A120151ED2430C9
:04055300FF02097E1C
:1005C7007BFF7A057980E4FDFF1203B77B007A0091
:1005D7007909752E04E4FD7F041204D37BFF7A05A5
:1005E7007985E4FD7F081203B77B007A00790975E6
:1005F7002E051204CF7BFF7A05798A7D01E4FF126D
:1006070003B77B007A007909752E067D017F0412F6
:1006170004D37BFF7A05798F7D017F081203B77BAF
:0F062700007A007909752E077D017F0C0204D33C
:100636007BFF7A057994E4FDFF1203B77B007A000D
:100646007909752E08E4FD7F041204D37BFF7A0531
:100656007999E4FD7F081203B77B007A0079097562
:100666002E091204CF7BFF7A05799E7D01E4FF12E5
:1006760003B77B007A007909752E0A7D017F041283
:1006860004D37BFF7A0579A37D017F081203B77B2C
:0F069600007A007909752E0B7D017F0C0204D3C9
:1006A5007BFF7A0579A8E4FDFF1203B77B007A008A
:1006B5007909752E0CE4FD7F041204D37BFF7A05BE
:1006C50079ADE4FD7F081203B77B007A00790975DF
:1006D5002E0D1204CF7BFF7A0579B27D01E4FF125E
:1006E50003B77B007A007909752E0E7D017F041210
:1006F50004D37BFF7A0579B77D017F081203B77BA9
:0F070500007A007909752E0F7D017F0C0204D355
:0D09EE007BFF7A0579BCE4FD7F030203B7AF
:0308D500016200BD
:10078200E4F562D2B0D2B1D2B2D2B330B00930B154
:100792000630B20320B3377F0F7E0012093D30B01E
:1007A2000930B10630B20320B31820B003756201DC
:1007B20020B10375620220B20375620320B3037590
:0F07C200620430B0FD30B1FA30B2F730B3F42238
:03000000020443B4
:0C044300787FE4F6D8FD75816202048A1F
:10000300E709F608DFFA8046E709F208DFFA803EDF
:1000130088828C83E709F0A3DFFA8032E309F608CC
:10002300DFFA8078E309F208DFFA807088828C8334
:10003300E309F0A3DFFA806489828A83E0A3F608E8
:10004300DFFA805889828A83E0A3F208DFFA804CC2
:1000530080D280FA80C680D4806980F28033801099
:1000630080A680EA809A80A880DA80E280CA803302
:1000730089828A83ECFAE493A3C8C582C8CCC5837A
:10008300CCF0A3C8C582C8CCC583CCDFE9DEE7804A
:100093000D89828A83E493A3F608DFF9ECFAA9F0C9
:1000A300EDFB2289828A83ECFAE0A3C8C582C8CC1F
:1000B300C583CCF0A3C8C582C8CCC583CCDFEADE38
:1000C300E880DB89828A83E493A3F208DFF980CC9A
:1000D30088F0EF60010E4E60C388F0ED2402B40493
:1000E3000050B9F582EB2402B4040050AF2323453A
:0600F3008223900053730C
:1000F900BB010689828A83E0225002E722BBFE0205
:09010900E32289828A83E4932237
:10011200BB010CE58229F582E5833AF583E02250A2
:1001220006E92582F8E622BBFE06E92582F8E222EC
:0D013200E58229F582E5833AF583E4932206
:10013F00BB010689828A83F0225002F722BBFE019F
:02014F00F32299
:10015100C2D5EC30E709B2D5E4C39DFDE49CFCEEC9
:1001610030E715B2D5E4C39FFFE49EFE1201E3C35D
:10017100E49DFDE49CFC80031201E330D507C3E458
:060181009FFFE49EFE2238
:10018700BB0110E58229F582E5833AF583E0F5F0B6
:10019700A3E0225009E92582F886F008E622BBFE93
:1001A7000AE92582F8E2F5F008E222E5832AF583D9
:0801B700E993F5F0A3E993229E
:1007D100C2D5E830E70FB2D5E4C39BFBE49AFAE453
:1007E10099F9E498F8EC30E717B2D512080712022C
:1007F10074E4C39BFBE49AFAE499F9E498F8800362
:1008010012027430D50DE4C39FFFE49EFEE49DFD0A
:04081100E49CFC2245
:0E01BF00C3E49FFFE49EFEE49DFDE49CFC2251
:1001CD00EB9FF5F0EA9E42F0E99D42F0EC6480C8A9
:0601DD0064809845F02249
:10098F00E4FFFE1200F9600C0FEF70010E09E97021
:05099F00F20A80EF22C6
:10044F0002091CE493A3F8E493A34003F68001F29E
:10045F0008DFF48029E493A3F85407240CC8C333AE
:10046F00C4540F4420C8834004F456800146F6DF7D
:10047F00E4800B01020408102040809008B2E47E53
:10048F00019360BCA3FF543F30E509541FFEE49372
:10049F00A360010ECF54C025E060A840B8E493A339
:1004AF00FAE493A3F8E493A3C8C582C8CAC583CA64
:1004BF00F0A3C8C582C8CAC583CADFE9DEE780BE1C
:0108D800001F
:1001E300BC000BBE0029EF8DF084FFADF022E4CC00
:1001F300F875F008EF2FFFEE33FEEC33FCEE9DECC9
:10020300984005FCEE9DFE0FD5F0E9E4CEFD22ED0E
:10021300F8F5F0EE8420D21CFEADF075F008EF2F58
:10022300FFED33FD4007985006D5F0F222C398FD49
:050233000FD5F0EA22E6
:1002380075F008758200EF2FFFEE33FECD33CDCC7D
:1002480033CCC58233C5829BED9AEC99E582984000
:100258000CF582EE9BFEED9AFDEC99FC0FD5F0D6DD
:10026800E4CEFBE4CDFAE4CCF9A88222B800C1B907
:100278000059BA002DEC8BF084CFCECDFCE5F0CB45
:10028800F97818EF2FFFEE33FEED33FDEC33FCEB7E
:1002980033FB10D703994004EB99FB0FD8E5E4F939
:1002A800FA227818EF2FFFEE33FEED33FDEC33FC26
:1002B800C933C910D7059BE99A4007EC9BFCE99A1A
:1002C800F90FD8E0E4C9FAE4CCFB2275F010EF2F5F
:1002D800FFEE33FEED33FDCC33CCC833C810D7075F
:1002E8009BEC9AE899400AED9BFDEC9AFCE899F89A
:0E02F8000FD5F0DAE4CDFBE4CCFAE4C8F9222D
:00000001FF
