:10023800E4FDFCC3ED9FEC9E5015E4FBFA0BBB00FC
:0F024800010AEB647C4A70F50DBD00010C80E4E7
:010257002284
:10021700E4FF7580FFC290D291D2A5AE80C2A50F30
:10022700EFD394325004EE20E7EF7F017E00020205
:01023700388E
:10029C008F1D120217C290C291851D80D2A5C2A5D6
:0102AC00222F
:1002AD008F1C120217D290C291851C80D2A5C2A5B7
:0102BD00221E
:100274007F3812029C7F0C12029C7F0612029C7F24
:040284000102029CD5
:100288008F1CED7004E51C8004E51C24404480FFAD
:0402980012029C2290
:1001CA008B148A158916120288AB14AA15A916125D
:1001DA0000F960130516E5167002051514F91200E8
:0801EA00F9FF1202AD80E222D0
:1001F2007F4012029CE4F51EE51E90000093FF1260
:1002020002AD051EE51EC3940840ED7F8512029CD7
:05021200E4FF0202AD53
:080189008E148F158D168B17E3
:10019100E4F51BE51775F008A42440251BFF1202A6
:1001A1009CAB18AA19A91A851B827583001201122A
:1001B100FF1202AD051BE51BC3940840D6AF15AD78
:0901C10016120288AF170202AD0C
:100258004772656720476520363636000000000083
:0C0268001F0000000000041F040A110029
:10013F0078087C007D007BFF7A0279587E007F0C67
:10014F001200D31202747F0A7E001202387518FF54
:10015F00751902751A6CE4FBFD7F07FE1201897B8E
:10016F00007A0079087D01E4FF1201CA7F101202A4
:0A017F009C7F207E0312023880F2FC
:030000000202BE3B
:0C02BE00787FE4F6D8FD75811E02013F38
:10000300E709F608DFFA8046E709F208DFFA803EDF
:1000130088828C83E709F0A3DFFA8032E309F608CC
:10002300DFFA8078E309F208DFFA807088828C8334
:10003300E309F0A3DFFA806489828A83E0A3F608E8
:10004300DFFA805889828A83E0A3F208DFFA804CC2
:1000530080D280FA80C680D4806980F28033801099
:1000630080A680EA809A80A880DA80E280CA803302
:1000730089828A83ECFAE493A3C8C582C8CCC5837A
:10008300CCF0A3C8C582C8CCC583CCDFE9DEE7804A
:100093000D89828A83E493A3F608DFF9ECFAA9F0C9
:1000A300EDFB2289828A83ECFAE0A3C8C582C8CC1F
:1000B300C583CCF0A3C8C582C8CCC583CCDFEADE38
:1000C300E880DB89828A83E493A3F208DFF980CC9A
:1000D30088F0EF60010E4E60C388F0ED2402B40493
:1000E3000050B9F582EB2402B4040050AF2323453A
:0600F3008223900053730C
:1000F900BB010689828A83E0225002E722BBFE0205
:09010900E32289828A83E4932237
:10011200BB010CE58229F582E5833AF583E02250A2
:1001220006E92582F8E622BBFE06E92582F8E222EC
:0D013200E58229F582E5833AF583E4932206
:00000001FF
